:4000000000800020E9110000E1110000E1110000080002230000087608000323000010760800042300002876080005230000307605000623000020700500072300003070B3
:4000400005000823000060700500FE230000707050000A220000205110000B220000C0511000FE220000F05100060D220000000080000E220000800600080F220000000822
:4000800080031022000000180001112200000040800012220000004280041322000000448000142200000049800015220000004D1000FE22000000500C0017230000004FF4
:4000C0000C00182300000C4F2000FE230000706580001A230000000680001B230000001480001C230000801480001D230000001680001E230000801680001F230000804DA4
:40010000800020230000004C800021230000804C800022230000801B8000232300000015800024230000801580002523000000178000262300008017800027230000000779
:400140008000282300008007800029230000804980002A230000804880002B230000004380002C230000804380002D230000804280002E230000004180002F230000804129
:400180001000FE23000010500100000001000000010000000048014001000000004800400100000000200140010000000020004080B51448144B21E05C689968DD688C420D
:4001C0000CD0002205E0A6180832D6E9008941E902898C460831AA42F5D101E004EB050C1C696146002204E008320026002741E902670831A242F7D1143301380028DBD104
:4002000003F02AFF01000000B045000048F20823C1F6FF731A780AB901201870704700BF48F20810C1F6FF7008B503682BB140F20003C0F2000303B1984708BDF0B5A1B0F6
:4002400000AFF860B9607A603B604FF001037B614FF00003BB6107E07B694FEA43037B61BB6903F10103BB61BA69BB689A42F3DB7B694FEA6303BB624FF000033B624FF060
:400280000003BB615FE0BA693B6A9A4243DABB694FEAC3027B681344D3E90023C7E91223BB694FEAC3023B681344D3E90023C7E91423BB694FEAC3027B6802EB03013B6A82
:4002C0004FEAC3027B681344D3E90023C1E90023BB694FEAC3023B6802EB03013B6A4FEAC3023B681344D3E90023C1E900233B6A4FEAC3027B6802EB0301D7E91223C1E905
:4003000000233B6A4FEAC3023B6802EB0301D7E91423C1E90023BB6A7B6208E03A6A7B6AC3EB02033B627B6A4FEA63037B627A6A3B6A9A42F2DD3A6A7B6A13443B62BB69A6
:4003400003F10103BB617B6903F1FF32BB699A4299DC4FF000024FF03F4303F57003C7E90E234FF000024FF00003C7E910234FF001037B634FF00003FB625DE17B6B3B63B5
:400380007B6B4FEA43037B634FF000024FF07E5303F5E003C7E91A234FF000024FF00003C7E91C234FF000033B62F7E03B6ABB61B3E0BA693B6B1344FB61FB694FEAC30287
:4003C0007B681344D3E9002310461946D7E91A2303F0BAFA02460B4614461D46FB694FEAC3023B681344D3E9002310461946D7E91C2303F0A9FA02460B462046294603F04F
:40040000EFF802460B46C7E91623FB694FEAC3023B681344D3E9002310461946D7E91A2303F092FA02460B4614461D46FB694FEAC3027B681344D3E9002310461946D7E9A1
:400440001C2303F081FA02460B462046294603F0C9F802460B46C7E91823FB694FEAC3027B6802EB0304BB694FEAC3027B681344D3E9002310461946D7E9162303F0B0F86C
:4004800002460B46C4E90023FB694FEAC3023B6802EB0304BB694FEAC3023B681344D3E9002310461946D7E9182303F099F802460B46C4E90023BB694FEAC3027B6802EB50
:4004C0000304BB694FEAC3027B681344D3E9002310461946D7E9162303F084F802460B46C4E90023BB694FEAC3023B6802EB0304BB694FEAC3023B681344D3E9002310462A
:400500001946D7E9182303F06DF802460B46C4E90023BA697B6B1344BB61BA697B699A42FFF647AFD7E91A01D7E90E2303F00CFA02460B4614461D46D7E91C01D7E910236B
:4005400003F002FA02460B462046294603F048F802460B46C7E91E23D7E91A01D7E9102303F0F2F902460B4614461D46D7E91C01D7E90E2303F0E8F902460B46204629464F
:4005800003F030F802460B46C7E91C23D7E91E23C7E91A233B6A03F101033B623A6A3B6B9A42FFF603AF4FF000004FF07E5101F5E001D7E90E2303F013F802460B461046A1
:4005C00019464FF000024FF0804303F0E7FA02460B461046194601F0B3FF02460B46C7E91023FB68012B05D13B6C3B647B6C83F000437B64D7E90E014FF000024FF07E53D1
:4006000003F5E00302F0EEFF02460B46104619464FF000024FF0804303F0C0FA02460B461046194601F08CFF02460B46C7E90E23FB6A03F10103FB62FA6ABB689A42FFF66C
:400640009DAEFB68012B3FD14FF00003BB6137E0BB694FEAC3027B6802EB0306BB694FEAC3027B681344D3E90045786903F006F902460B462046294603F090FA02460B466C
:40068000C6E90023BB694FEAC3023B6802EB0306BB694FEAC3023B681344D3E90045786903F0ECF802460B462046294603F076FA02460B46C6E90023BB6903F10103BB6164
:4006C000BA697B699A42C3DB07F18407BD46F0BD2DE9B04382B000AF48F61003C1F6FF73D3E900231046194601F0EAFC02460B461046194603F0C2FB03463B7148F619032A
:40070000C1F6FF731B781C4648F61003C1F6FF73D3E900231046194601F042FC02460B461046194603F0AAFB0346DBB21A4648F21023C1F6FF734FEA04210A4413441B7816
:400740007B7148F61903C1F6FF731B7819463A7948F21023C1F6FF734FEA01210A4413441B78BB71BB79184603F088F804460D4648F61003C1F6FF73D3E900893B7918469D
:4007800003F07CF802460B464046494602F028FF02460B46904699467A79BB79C3EB0203184603F06BF802460B464046494603F0CBF802460B462046294602F013FF024611
:4007C0000B461046194603F059FB0346FB71FB79184600F01DFE48F20C13C1F6FF731B78184603F04BF848F61803C1F6FF731B781A4644F2E003C0F200034FEAC2021344DA
:40080000D3E9002303F0A0F802460B461046194648F61003C1F6FF73D3E9002302F0E2FE02460B461046194648F61003C1F6FF73C3E9000148F61003C1F6FF73D3E9002307
:400840004FF000010C46104619464FF000024FF0804303F5E00303F0FDFA0346002B02D04FF001031C46E3B2002B19D048F61003C1F6FF73D3E90023104619464FF0000246
:400880004FF0804303F5E00302F0AAFE02460B461046194648F61003C1F6FF73C3E9000100F000FF07F10807BD46BDE8B08300BF80B500AF49F62003C1F6FF731B7803F1C6
:4008C0000103DAB249F62003C1F6FF731A7049F62003C1F6FF731B78472B06D949F62003C1F6FF734FF000021A7049F62003C1F6FF731A784AF6AB23CAF6AA23A3FB021323
:400900004FEAD3010B464FEA43030B444FEA8303C3EB0203DAB248F61803C1F6FF731A7049F62003C1F6FF731A784AF6AB23CAF6AA23A3FB02134FEAD303DAB248F6190321
:40094000C1F6FF731A7048F61903C1F6FF731B78C3F105034FF0200242FA03F3DAB248F20C13C1F6FF731A7001F03AF880BD00BF2DE9F045ADF5C25D83B000AF00F06CFE60
:4009800001F008F800F0D8FC00F0BAFE4FF0000307F5C05101F108010B604FF0000307F5C05202F10802136067E007F5C05303F108031E6807F5C05101F108010A6844F2DA
:4009C0004033C0F200039B5C184602F047FF02460B4607F5805101F108014FEAC6000144C1E900234FF0000307F5C05202F1100213604FF0000307F5C05606F11006336014
:400A000028E007F5C05101F11001086807F5C05202F10802116807F5C05303F108031A6844F24033C0F200039A5C48F21023C1F6FF734FEA002001440B441A7007F5C056A7
:400A400006F11006336803F1010307F5C05101F110010B6007F5C05202F110021368052BCFDD07F5C05606F10806336803F1010307F5C05101F108010B6007F5C05202F1D3
:400A800008021368FF2B90DD40F2D160C0F2000000F0F0FC40F6B100C0F2000000F0CEFF62B607F5805303F1080348F62000C1F6FF7019464FF4006203F006FA4FF0010032
:400AC0004FF0080148F62002C1F6FF7249F22003C1F6FF73FFF7B2FB4FF0010307F5C05606F108063360E8E007F5C05101F108010B68012B07D14FF0000307F5C05202F185
:400B00001702137010E007F5C05606F10806336803F1FF33B3FA83F3DBB2C3F1200307F5C05101F117010B7007F5C05303F117031A7844F24043C0F200034FEAC2021344C7
:400B4000D3E90023104619464FF000024FF0804303F5501303F022F802460B464FF000004FF0804101F5101101F03EFB02460B4607F5C05404F11804C4E9002307F5C05186
:400B800001F108010E6807F5C05303F108031A6848F62003C1F6FF734FEAC2021344D3E900231046194607F5C05404F11804D4E9002302F0C9FE02460B461046194648F67C
:400BC0002003C1F6FF734FEAC6021344C3E9000107F5C05606F108063368C3F5807207F5C05303F10803196848F62003C1F6FF734FEAC1010B44D3E9000148F62003C1F610
:400C0000FF734FEAC2021344C3E9000107F5C05404F10804266807F5C05101F108010A6849F22003C1F6FF734FEAC2021344D3E900231046194607F5C05404F11804D4E9DB
:400C4000002302F081FE02460B461046194649F22003C1F6FF734FEAC6021344C3E9000107F5C05606F108063368C3F5807107F5C05303F108031A6849F22003C1F6FF7394
:400C80004FEAC2021344D3E90023144683F0004549F22003C1F6FF734FEAC1021344C3E9004507F5C05606F10806336803F1010307F5C05101F108010B6007F5C05202F106
:400CC00008021368802B7FF70FAF4FF0000307F5C05606F10806336072E207F5C05101F108010B68002B40F38E8007F5C05202F108021368C3F107034FF0010202FA03F3F1
:400D000003F1010307F5C25606F10406336068E007F5C25101F104010E6807F5C25202F104021368C3F5807C07F5C25303F10403D3F800E007F5C25101F104010B68C3F52F
:400D4000807149F22003C1F6FF734FEAC10202EB03004FF000024FF00003C0E9002349F22003C1F6FF734FEAC1021344D3E9000149F22003C1F6FF734FEACE021344C3E996
:400D8000000149F22003C1F6FF734FEACE021344D3E9000148F62003C1F6FF734FEACC021344C3E9000148F62003C1F6FF734FEACC021344D3E9000148F62003C1F6FF73CA
:400DC0004FEAC6021344C3E9000107F5C25202F10402136803F1010307F5C25606F10406336007F5C05101F108010B68C3F108034FF0010202FA03F207F5C25606F1040648
:400E000033689A4284DA07F5006303F10803184648F62001C1F6FF714FF4006203F054F807F10803184649F22001C1F6FF714FF4006203F049F807F5006202F1080207F1A7
:400E400008034FF000004FF00801FFF7F7F94FF000024FF0000307F5C151C1E90023DEA3D3E9002307F5C05606F12806C6E900234FF0000307F5C05101F134010B6077E0FB
:400E800007F5C05303F134031A6807F5006303F108034FEAC2021344D3E900234FF0000139711046194607F5C05606F12806D6E9002302F0D9FF0346002B02D04FF00103DA
:400EC0003B713B79002B13D007F5C05101F134010A6807F5006303F108034FEAC2021344D3E9002307F5C05606F12806C6E9002307F5C05101F134010A6807F5006303F14B
:400F000008034FEAC2021344D3E900234FF0000139711046194607F5C156D6E9002302F085FF0346002B02D04FF001033B713B79002B11D007F5C05101F134010A6807F5D2
:400F4000006303F108034FEAC2021344D3E9002307F5C156C6E9002307F5C05101F134010B6803F1010307F5C05202F13402136007F5C05606F134063368FF2B80DD07F54D
:400F8000C05202F12802D2E9000107F5C156D6E9002302F025FB02460B4607F5C05101F13801C1E900234FF0000307F5C05202F134021360F0E007F5C05303F134031B6828
:400FC0007B6007F5C05606F13406326807F5006303F108034FEAC2021344D3E90023104619464FF000024FF0804303F5C00302F0F7FA02460B461046194677A3D3E90023CB
:4010000002F0A2FC02460B461046194607F5C05606F13806D6E9002302F0C0FD02460B46104619464FF000024FF0804303F5C00302F0D8FA02460B4607F5006101F10801F9
:401040007E684FEAC6000144C1E9002307F5C05101F10801D1F800A007F5C05202F13402D2F8008007F5C05303F134031A6807F5006303F108034FEAC2021344D3E900233A
:401080004FF000010E461046194653A3D3E9002302F0CCFE0346002B02D04FF001031E46F3B283F00103DBB2002B24D107F5C05606F13406326807F5006303F108034FEA2C
:4010C000C2021344D3E900234FF000010E46104619464FF000024FF0000302F0A7FE0346002B02D04FF001031E46F3B283F00103DBB2002B39D007F5C05101F134010A6823
:4011000007F5006303F108034FEAC2021344D3E900234FF000010E46104619462EA3D3E9002302F083FE0346002B02D04FF001031E46F3B2002B14D007F5C05303F13403D7
:401140001A6807F5006303F108034FEAC2021344D3E900231046194602F090FE0346DBB201E04FF0FF031A4601E04FF0000248F21023C1F6FF734FEA0A2141440B441A7055
:4011800007F5C05606F13406336803F1010307F5C05101F134010B6007F5C05202F134021368FF2B7FF707AF07F5C05606F10806336803F1010307F5C05101F108010B6095
:4011C00007F5C05202F108021368052B7FF785AD67E400BFAFF3008048E17A14AEFF6F4080B400AFFEE700BF054B1C7844F001041C70044B1A78D2B2034B1A70FEF7D8FF19
:40120000E8460040FA460040BC76004080B582B000AF4EF60C53CEF2000340F20042C0F2FA521A604EF61453CEF200034EF61452CEF20002126842F400721A604FF000032E
:401240007B6019E079687B68032B07D87A6840F20003C0F2000353F8223003E041F2E113C0F2000348F20002C1F6FF7242F821307B6803F101037B607B682F2BE2D947F2CB
:40128000BC63C4F200031B78DAB249F63803C1F6FF731A704EF60853CEF2000348F20002C1F6FF721A6000F0EFFD48F20013C1F6FF734FF000021A6007F10807BD4680BD76
:4012C00080B500AF45F62003C4F200034FF000021A7045F62103C4F200034FF000021A704FF0000000F06AF84FF0020000F03EF880BD00BF80B400AF44F2A833C4F20003A4
:4013000044F2A832C4F200021278D2B242F00102D2B21A7044F2B833C4F2000344F2B832C4F200021278D2B242F00102D2B21A70BD4680BC704700BF80B500AF49F628038E
:40134000C1F6FF731B78002B08D1FFF7B9FF49F62803C1F6FF734FF001021A70FFF7CAFF4FF0640000F054F880BD00BF80B483B000AF0346FB7145F62003C4F2000345F6E9
:401380002002C4F200021278D2B202F0FD021A7045F62003C4F2000345F62002C4F200021278D1B2FA7902F0020241EA0202D2B21A7007F10C07BD4680BC704780B582B083
:4013C00000AF0346FB7145F62003C4F2000345F62002C4F200021278D2B202F0F3021A7045F62003C4F2000345F62002C4F200021278D1B2FA7902F00C0241EA0202D2B27F
:401400001A7000F015F807F10807BD4680BD00BF80B483B000AF0346FB7145F68033C4F20003FA791A7007F10C07BD4680BC704780B483B000AF45F62003C4F200031B78EF
:40144000DBB203F00C034FEA9303DBB203F10603FB7144F20863C4F20003FA7902F1924202F590721278D2B21A7007F10C07BD4680BC704780B582B000AF786000F042F8DA
:40148000786800F00BF84FF0070000F01BF800F02DF807F10807BD4680BD00BF80B485B000AF78604EF60853CEF200031B68FB60FB6803F184037A681A6007F11407BD4675
:4014C00080BC704780B483B000AF0346FB714EF21143CEF20003FA794FEA4212D2B21A7007F10C07BD4680BC704700BF80B400AF4EF20013CEF200034FF400321A60BD461E
:4015000080BC704780B400AF4EF28013CEF200034FF400321A60BD4680BC704780B500AF44F60073C4F2000344F60072C4F200021278D2B202F001021A7044F60273C4F2BA
:40154000000344F60272C4F200021278D2B202F0FC021A7044F60B73C4F2000344F60B72C4F200021278D2B202F0CF021A7044F60B73C4F2000344F60B72C4F200021278D5
:40158000D2B242F03002D2B21A7044F60B73C4F2000344F60B72C4F200021278D2B202F0F0021A7044F60B73C4F2000344F60B72C4F200021278D2B242F00F02D2B21A709A
:4015C00044F60173C4F2000344F60172C4F200021278D2B242F00102D2B21A704FF44E7000F06CF84FF44E7000F07AF84FF0080000F048F880BD00BF80B400AF44F2A333B4
:40160000C4F2000344F2A332C4F200021278D2B242F00102D2B21A7044F2B333C4F2000344F2B332C4F200021278D2B242F00102D2B21A7044F60073C4F2000344F60072D2
:40164000C4F200021278D2B242F00102D2B21A70BD4680BC704700BF80B500AF49F62903C1F6FF731B78002B08D1FFF757FF49F62903C1F6FF734FF001021A70FFF7BCFF40
:4016800080BD00BF80B483B000AF0346FB7144F60373C4F20003FA791A7007F10C07BD4680BC704780B400AF44F60373C4F200031B78DBB21846BD4680BC704780B485B0D3
:4016C00000AF0346FB80FB88FB8144F60473C4F20003FA891A8007F11407BD4680BC704780B483B000AF0346FB8044F60673C4F20003FA881A8007F10C07BD4680BC704785
:4017000080B500AF49F62A03C1F6FF731B78002B08D100F00BF849F62A03C1F6FF734FF001021A7000F02AF880BD00BF80B400AF46F28753C4F200034FF072021A7046F214
:401740008653C4F200034FF020021A7046F22453C4F200034FF007021A7046F23453C4F200034FF048021A7046F28553C4F200034FF000021A70BD4680BC704780B582B036
:4017800000AF00F061F80346FB7146F29753C4F2000346F29752C4F200021278D2B242F02002D2B21A7046F29653C4F2000346F29652C4F200021278D2B242F01002D2B2D0
:4017C0001A7046F29553C4F2000346F29552C4F200021278D2B242F01002D2B21A7000F009F8FB79184600F033F807F10807BD4680BD00BF80B400AF44F2A233C4F20003C4
:4018000044F2A232C4F200021278D2B242F00102D2B21A7044F2B233C4F2000344F2B232C4F200021278D2B242F00102D2B21A70BD4680BC704700BF0230800803D000BF9D
:4018400001380046FCD17047EFF3108072B6704780F31088704700BF80B500AF44F60C73C4F2000344F60C72C4F200021278D2B202F001021A7044F60E73C4F2000344F692
:401880000E72C4F200021278D2B202F0FC021A7044F61773C4F2000344F61772C4F200021278D2B202F0CF021A7044F61773C4F2000344F61772C4F200021278D2B242F0DD
:4018C0003002D2B21A7044F61773C4F2000344F61772C4F200021278D2B202F0F0021A7044F61773C4F2000344F61772C4F200021278D2B242F00F02D2B21A7044F60D7323
:40190000C4F2000344F60D72C4F200021278D2B242F00102D2B21A704FF0C70000F06CF84FF0C70000F07AF84FF0080000F048F880BD00BF80B400AF44F2A333C4F200034F
:4019400044F2A332C4F200021278D2B242F00202D2B21A7044F2B333C4F2000344F2B332C4F200021278D2B242F00202D2B21A7044F60C73C4F2000344F60C72C4F2000276
:401980001278D2B242F00102D2B21A70BD4680BC704700BF80B500AF49F62C03C1F6FF731B78002B08D1FFF757FF49F62C03C1F6FF734FF001021A70FFF7BCFF80BD00BFB3
:4019C00080B483B000AF0346FB7144F60F73C4F20003FA791A7007F10C07BD4680BC704780B400AF44F60F73C4F200031B78DBB21846BD4680BC704780B485B000AF03467C
:401A0000FB71FB79FB8144F61073C4F20003FA891A8007F11407BD4680BC704780B483B000AF0346FB7144F61273C4F20003FA791A8007F10C07BD4680BC704780B582B0F6
:401A400000AF786000F042F8786800F00BF84FF0070000F01BF800F02DF807F10807BD4680BD00BF80B485B000AF78604EF60853CEF200031B68FB60FB6803F188037A688A
:401A80001A6007F11407BD4680BC704780B483B000AF0346FB714EF21243CEF20003FA794FEA4212D2B21A7007F10C07BD4680BC704700BF80B400AF4EF20013CEF20003B9
:401AC0004FF480221A60BD4680BC704780B400AF4EF28013CEF200034FF480221A60BD4680BC704780B584B000AFF860B9607A60F868B9687A6802F0E7F907F11007BD4619
:401B000080BD00BF80B483B000AF49F63003C1F6FF734FF000021A6047F20063C4F200034FF010021A7047F21003C4F200034FF001021A7047F21903C4F200034FF00002ED
:401B40001A7047F60003C4F200034FF4BC721A8047F60203C4F200034FF001021A7047F60303C4F200034FF003021A7047F60403C4F2000340F21002C0F2000292B21A8073
:401B800047F60603C4F2000347F608021A8047F20463C4F200034FF000021A8047F20663C4F200034FF480421A8047F22903C4F200034FF009021A7047F23903C4F20003F7
:401BC0004FF00C021A7047F26903C4F200034FF016021A7047F27903C4F200034FF019021A7047F21403C4F200034FF001021A7047F60003C4F200031B889BB2002BF7D1CC
:401C00004FF000037B6015E07B684FEAC30247F60C03C4F2000313441A46796844F28043C0F2000353F821309BB213807B6803F101037B607B682E2BE6D947F21403C4F233
:401C400000034FF001021A7047F21803C4F200031B78DBB203F00103DBB2002BF4D147F22803C4F200031B78DBB203F00103DBB2002BF4D147F23803C4F200031B78DBB2F6
:401C800003F00103DBB2002BF4D147F26803C4F200031B78DBB203F00103DBB2002BF4D147F27803C4F200031B78DBB203F00103DBB2002BF4D107F10C07BD4680BC7047BD
:401CC00080B582B000AF44F28003C4F2000340F25A321A8044F28203C4F200034FF018021A7044F28403C4F2000340F6B7321A8044F28603C4F200034FF019021A7044F2EC
:401D00000033C4F200034FF002021A7044F20003C4F200034FF008021A7044F20023C4F200034FF003021A7044F2A163C4F2000340F20812C4F600121278D2B21A7044F26C
:401D40002223C4F2000340F242221A8044F22023C4F2000341F251021A804FF00003FB714FF019033B6019E0FB794FEA4303DAB244F22523C4F200031B78DBB203F0010379
:401D800042EA0303DBB203F00303FB714FF4F070FFF752FD3B6803F1FF333B603B68002B02D0FB79032BDFD144F20403C4F200034FF480721A8044F20403C4F200034FF0C7
:401DC00007021A7044F20603C4F200034FF000021A7044F20803C4F200034FF048021A7044F20403C4F200034FF000021A7044F20103C4F200034FF002021A7044F2A233F4
:401E0000C4F2000344F2A232C4F200021278D2B242F00302D2B21A7007F10807BD4680BD80B483B000AF40F2CF13C4F600131B78FB7145F66E03C4F20003FA7902F00702C4
:401E40001A7045F66F03C4F20003FA794FEA1212D2B21A7045F20C13C4F200034FF004021A7045F68323C4F200034FF001021A7045F67603C4F200034FF044021A7007F1DC
:401E80000C07BD4680BC704780B500AF72B644F60003C4F200034FF000021A70FFF710FF44F2E863C4F2000344F2E862C4F200021278D2B242F00402D2B21A70FFF722FE6B
:401EC00045F20303C4F2010345F20302C4F201021278D2B242F00202D2B21A7045F21303C4F2010345F21302C4F201021278D2B242F00202D2B21A7044F2A033C4F2000384
:401F000044F2A032C4F200021278D2B242F04002D2B21A7044F2C233C4F2000344F2C232C4F200021278D2B242F01002D2B21A7045F20010C4F2000040F64831C4F60001C4
:401F40004FF00A02FFF7CEFD45F21210C4F2000040F65431C4F600014FF00802FFF7C2FD44F22233C4F2000344F22232C4F200021278D2B242F00802D2B21A70FFF750FFAF
:401F800044F2B030C4F2000044F2A031C4F200014FF00E02FFF7A6FD80BD00BF000000002DE9F047C1F30A54A4F57E740246073C0B46132C06460F460D468A46804627DC21
:401FC000002C53DB4FF6FF7CC0F20F0C4CFA04F909EA0105054317D037A3D3E9002301F001FB0022002301F03FFF00284FD0002F05DD4FF4801353FA04F407EB040A2AEAEE
:40200000090A002553462A4610461946BDE8F087332C07DDB4F5806FF6D101F0E3FA02460B46F1E74FF0FF35A4F1140C25FA0CF50542E9D020A3D3E9002301F0D3FA0022E3
:40204000002301F011FF10B3002F0CDD142C08BF07F1010A07D00123C4F1340413FA04F4A61928BF9A4426EA05050AE012A3D3E9002301F0B7FA0022002301F0F5FE48B982
:40208000354653462A4610461946BDE8F0873546BA46F6E7002F0ADB56EA070508BFAA46EFD040F2000A0025C3F6F07AE9E700254FF0004AE5E700BF9C7500883CE4377EA2
:4020C0002DE9F047C1F30A54A4F57E740246073C0B46132C06460F460D468A46804621DC002C40DB4FF6FF7CC0F20F0C4CFA04F909EA0105054311D039A3D3E9002301F06F
:4021000071FA0022002301F0AFFE00283CD0002F5DDB2AEA090A002553462A4610461946BDE8F087332C07DDB4F5806FF6D101F059FA02460B46F1E74FF0FF35A4F1140C11
:4021400025FA0CF50542E9D025A3D3E9002301F049FA0022002301F087FEA8B1002F1BDB26EA05050AE01EA3D3E9002301F03AFA0022002301F078FE48B9354653462A4631
:4021800010461946BDE8F0873546BA46F6E7002F10DB0025AA46F1E7142C06D00126C4F13404A64016EB0806DAD30AF1010A26EA0505E3E727F0004540F2000A3543CBF668
:4021C000F07A002D08BFBA4618BF0025D6E74FF4801353FA04F407EB040A9AE7AFF300809C7500883CE4377E2DE9F04F8DB0994682468B46904600F0FBF948F20D14C1F6C6
:40220000FF7494F90030B3F1FF3F06460F4605D04046494601F096F8054620B1304639460DB0BDE8F08F5046594601F08BF8019000282BD0404649460022002301F0ECFDFF
:402240000028EBD094F9002044F23C53C0F200030020B2F1FF3F14BF002101210393022A14BF0A4641F0010240F200010123C3F6F0710A95CDE904ABCDE906890293CDE91F
:402280000801002A2ED0DDE90867C7E7504659460022002301F0C0FD002830D0404649460022002301F0B8FD002864D0019844F23C5394F90020C0F20003002103930A904D
:4022C00001230020CDE904AB0293CDE90689CDE908013AB140F200030022C3F6F073CDE90823D0E702A801F03BF8002871D00A9B002BC8D001F0E2FD0A9B0360C3E730460F
:40230000394601F017F80546002867D0304639460022002301F080FD00283FF47FAF5046594601F007F800283FF478AF4046494601F000F800283FF471AF94F9002044F240
:402340003C53C0F20003002000210393042302930023022ACDE904ABCDE906890A93CDE908016AD002A800F0FBFF002865D00A9B002B88D0BEE74046494600F0DBFF002832
:402380003FF44CAF404649460022002301F04EFD00283FF443AF019944F23C532278C0F20003CDE904AB039301230A910293CDE90689002A37D100220023CDE9082302A8C8
:4023C00000F0CEFF0028D2D101F078FD21230360CDE701F073FD2123036088E75046594600F0A8FF002891D04046494600F0A2FF00288BD03046394600F0A4FF10B32478B8
:4024000044F23C53C0F200030A9503930123CDE904AB0293CDE90689002C3BD100200021CDE90801CBE70020022A40F20001CFF6F071CDE90801C7D0C1E701F03FFD22238B
:40244000036094E7257844F23C52C0F2000203230A9003920293CDE904ABCDE9068925BB4FF6FF7750465946002200234FF06046C4F2EF77CDE9086701F0D8FC30BB02A840
:4024800000F06EFF00287FF432AF01F017FD222303602CE70020002102460B4601F07EFB022CCDE908018FD089E740F2000750465946002200230026C7F6F077CDE9086761
:4024C00001F0B4FC00BB022DD9D1DEE740F200030022C3F6E0734046494601F035FA06460F4600F045FF32463B4601F095FC48B94FF6FF734FF06042CCF2EF732578CDE9EE
:402500000823E0E72578DEE740F200030022C3F6E0734046494601F017FA06460F4600F027FF32463B4601F077FC0028EAD140F200030022CFF6F0732578CDE90823C2E730
:402540002DE9F04F8BB006460F4600F001FE48F20D14C1F6FF7494F90030B3F1FF3F8046894631D03046394600F0ECFE054600282AD14FF0000A4FF0000B30463946524624
:402580005B4601F053FCF8B1247844F24053C0F20003089501930123CDE902670093CDE90467B4B15046594652465B4601F0F6FA022CCDE906010ED101F080FC21230360BD
:4025C000089B73B9DDE90689404649460BB0BDE8F08FCDE906AB684600F0C2FE0028EFD1EAE701F06BFC089B0360EBE7000000002DE9F04F8A461946804621F0004610461E
:402600000F4656EA000191B015461C46D346C14611D040F200012AF0004CC7F6F071CDF808A08C4511DD0CF1404C0CF5801C5CEA090C40F0848040F200040025C3F6F074F5
:402640002846214611B0BDE8F08F14BF00220122B8F1000F0CBF002302F00103002BE2D18E42E0DC14BF00230123089300280CBF002303F00103002BD5D1BAF1000F67DBF3
:4026800000230693B0B9089900296AD140F20003C3F6F0739E4200F09D80B7F1804F04BF4046514644D040F20003C3F6E0739F4200F0B383404651460192CDF800C000F0DA
:4026C00035FE019ADDF800C00491B9F1000F0CD1BCF1000F08BF42F00102002A56D140F20003C3F6F0739C4550D04FEADB79069909F1FF3951EA090167D040F20003C4F22C
:40270000E0139E4240F3998040F20003C4F2F0339E4240F3F2834FF6FF73C3F6EF739C4540F38683002F2EDD0FF66411D1E9000102460B4601F008F905460C4680E744F2C1
:402740004450C0F2000011B0BDE8F04F00F00ABE4FF6FF73C4F23F339E424DDD0221069190E70CF1404303F5801353EA09033FF462AF4FF6FF73C3F6EF739C4540F3B683E5
:40278000002FBFF65DAF00252C4659E7002FC0F22884049C054602990029BFF651AF0CF1404C069A0CF5801C52EA0C0240F047842A4628462346214600F012FF02460B460E
:4027C00001F0ECF905460C463AE74046514642465346F1E7002FA4BF45465446BFF630AF40F2000142460020C3F6F071534601F0D5F905460C4623E74FF6FF73C3F6EF731E
:402800009E427FF73DAF3315A3F57E73073B142B40F30884C3F134030493049930FA03F3069313FA01F1049181427FF429AF03F00101C1F10201069124E7BCF5801FA4BFCC
:402840004FF60141CFF6FF710FDA049F40F20003C4F240330022394601F076F80B4604914FF6CC319C46CFF6FF712CF07F4349F68E0223F47003C0F20302934243F07E57A8
:4028800001EB2C5C47F4E00740F3C3824BF27962C0F20B029342C4BF0CF1010CA7F5801700F3B7824FF44028012644F248533946C0F20003CDF800C003EBC6068246D6E9D5
:4028C000002300F08DFED6E90023CDE90A015046394600F087FE0B4640F200010246C3F6F071002001F05AF9CDE90E01DDE90E23DDE90A0101F028F84FF0000ECDE9080119
:402900007910DDE9082341F00051CDE904230022CDF810E001EB0803CDE90C23DDE9042310461946CDE90223DDE90C2301F00CF802460B46DDE90A0100F052FED6E9002318
:40294000CDE90A01DDE90C0100F04AFE02460B465046394600F044FE02460B46DDE9020100F0F2FF02460B46DDE90A0100F038FEDDE90E2300F0E8FFCDE90C01DDE9080178
:4029800002460B4600F0E0FF02460B4682468B4600F0DAFF0FF20073D3E90023CDE90A015046594600F0D0FF0FF2F463D3E9002300F018FE52465B4600F0C6FF0FF2E86335
:4029C000D3E9002300F00EFE52465B4600F0BCFF0FF2DC63D3E9002300F004FE52465B4600F0B2FF0FF2D063D3E9002300F0FAFD52465B4600F0A8FF0FF2C463D3E900235C
:402A000000F0F0FD02460B46DDE90A0100F09CFFDDE9082382468B46DDE9020100F0E2FDDDE90C2300F090FF52465B4600F0DAFDCDE90A01DDE9020102460B4600F084FF98
:402A400040F200030022C4F20803CDE90E0100F0C9FDDDE90A2300F0C5FD049B9A461A468B46DDE902015B4600F06EFF52465B46CDE90201DDE90C0100F066FF40F2000358
:402A80000022C4F20803CDE90C015046594600F0A7FDDDE90E2300F0A3FD02460B46DDE90A0100F09DFDDDE9082300F04DFF02460B46DDE90C0100F095FDCDE90801DDE98C
:402AC0000823DDE9020100F08DFDDDF810E00FF2F853D3E900237046F2468B4600F034FF0FF2EC53D3E90023CDE90C015046594600F02AFFDDE90223CDE90A015046594685
:402B000000F06EFD02460B46DDE9080100F068FD0FF2C453D3E9002300F016FF02460B46DDE90A0100F05EFDD6E9042300F05AFDCDE90801DDF800C0604600F09FFED6E959
:402B40000823CDE90223DDE9082382468B46DDE90C0100F047FDDDE9022300F043FD52465B4600F03FFD049B52461E465B4630460F4600F035FDDDE9022300F031FDDDE946
:402B80000C2300F02DFD02460B46DDE9080100F027FDCDE90401DDF818E00EF1FF3353EA090300F09B8140F200030022C3F6F073CDE902234FF000082346424628462146E7
:402BC00000F00EFD32463B4600F0BEFEDDE9042382468B462846214600F0B6FE02460B465046594600F0FEFC32463B4682468B464046214600F0A8FE04460D462B465046C5
:402C00005946224600F0EEFC4FF6FF73C4F28F039942804689460F460E4640F30D8101F13F4202F5E002024340F0EC810FF2B043D3E900235046594600F0D4FC22462B460B
:402C4000CDE906014046494600F0CAFC02460B46DDE9060101F008F9002840F0D38129F0004740F20003C3F6E0739F4200F30081002306939C4622462B4650465946CDF861
:402C800000C000F0AFFC00260FF25C43D3E9002330460F4600F058FE22462B46804689463046394600F09CFC02460B465046594600F096FC0FF23843D3E9002300F044FE3B
:402CC0000FF23443D3E9002304460D463046394600F03AFE02460B462046294600F082FC06460F4632463B464046494600F07AFC42464B460D46044600F072FC02460B4625
:402D00003046394600F06CFC2B462246804689462046294600F018FEF9A3D3E9002306460F4600F011FEF8A3D3E9002300F058FC32463B4600F008FEF5A3D3E9002300F0CE
:402D400051FC32463B4600F0FFFDF3A3D3E9002300F046FC32463B4600F0F6FDF0A3D3E9002300F03FFC32463B4600F0EDFD02460B462046294600F033FC06460F46324688
:402D80003B462946204600F0DFFD00224FF0804382468B463046394600F022FC02460B465046594600F0FAFE42464B4606460F462046294600F0C8FD42464B4600F012FC20
:402DC00002460B463046394600F00AFC2B46224600F006FC0B4640F200010246C3F6F071002000F0FDFBDDF818E0DDF800C00EEB01030D461A15002AC2BF1D4602462B46EE
:402E000040F33881DDE9020100F09EFD05460C4616E44FF40028002647E5029B002BFFF649AC4046514611B0BDE8F04F00F090B9002FBFF6A8AC77E44CF6FF3321F00047F2
:402E4000C4F290039F427FF70CAF43F20043C3F66F73CB18034340F0F78022462B4600F0BFFB52465B4600F0F5FF002840F0EC803B154FF48012A3F57E734FF6FF70063B0D
:402E8000C0F20F0052FA03F34FF000089919C1F30A5321F07F4CA3F57E732CF4700C073B4CEA020C1841C3F114034CFA03FC002EB8BFCCF1000C21EA000942462046294636
:402EC0004B464FEA0C5ECDF800C0CDF818E000F087FBDDF800C004460D46CCE640F200030022CBF6F073CDE9022363E6002FBFF64AAC04F10044FFF7A3BB4FF6FE73C3F691
:402F0000EF739C4594DD40F20003C3F6F0739C453FF708AC049F40F200030022C3F6F073394600F05DFB80A3D3E9002306460F4600F00AFD7EA3D3E9002382468B4630463B
:402F4000394600F001FD32463B46CDE902013046394600F0F9FC40F200030022CBF6D073CDE904013046394600F0EEFC72A3D3E9002300F037FB32463B46002600F0E4FC6E
:402F80000B4640F200010246C3F6E071002000F027FB02460B46DDE9040100F0D5FC68A3D3E9002300F0D0FC02460B46DDE9020100F018FBCDE902015046DDE90223594600
:402FC00000F010FB52465B4630460F4600F008FB02460B46DDE9020100F002FBCDE90401D9E540F200010246C3F6F0710020049BCDF800C000F0D2FDDDF800C005460C464D
:40300000FFF7C9BB22A3D3E90023DDE9020100F09BFC1FA3D3E9002300F096FC05460C46FFF70EBB00BBC3F1140356FA03F010FA03F3B34224D000210691FFF724BB069BC3
:40304000012B7FF4FDAA54E73FA3D3E90023DDE9020100F079FC3CA3D3E9002300F074FC05460C46FFF7ECBA4FF0000ECDF818E0FFF720BB624600F017FA02460B46C1E6C5
:4030800000F00103C3F102030693FFF7FCBA00BF9C7500883CE4377EEF4E454A287ECA3F65DBC9934A86CD3F01411DA96074D13F4D268F515555D53FFFAB6FDBB66DDB3FD0
:4030C000033333333333E33F000000E009C7EE3FF5015B14E02F3EBEFD033ADC09C7EE3FFE822B654715973C00000000432EE63FEF39FAFE422EE63F396CA80C615C20BECE
:40310000D0A4BE726937663EF16BD2C541BDBB3E2CDE25AF6A56113F93BDBE166CC1663F3E5555555555C53F000000604715F73F44DF5DF80BAE543E555555555555D53F27
:40314000FE822B654715F7BF59F3F8C21F6EA50140F2000C0B46C7F6F07C02462DE9F047664601EA0C0C0446B4450D468046894600F0BE80002940F38C805FEA215800F085
:403180009680A8F57E7823F07F43A8F1070823F4700318F0010F43F480136AD1D10F4FF0000C01EB43035200654660464FF400114418D60F52009C420CF1010C02DC1B1B5F
:4031C0006D1860184908BCF1160F06EB4303EFD100244FF00041A246264613E0834214BF0027012794458CBF002707F001076FB9013407464908D00F5200202C00EB4303F3
:403200001BD03846984201EB060CE7DA0CF000470CEB0106B7F1004F27D007461B1A9445CCEB020288BF013B01348A44D00F49085200202C00EB4303E3D113431ED14FEA90
:403240005A0A4FEA680115F0010F18BF4AF0004A0905544601F17E5101F5C00101EB65031D4620462946BDE8F087002ED5DB471CD4E7D10F520001EB43038FE7BAF1FF3F51
:403280001CBF0AF001039A44D9D101354FF0000AD7E721F0004C5CEA000CE2D000293AD18846D30AA8F115085205002BF9D013F480112DD15B00013113F4801FFAD0C1F1EA
:4032C000200008F1010832FA00F0C1EB08080343A8F57E788A40A8F1070823F07F4318F0010F23F4700343F480133FF457AFC0E702460B4600F028FB02460B46204629464E
:4033000000F070F904460D4620462946BDE8F08720200021D5E702460B4600F061F902460B4600F03BFC04460D469AE721F000431946704721F0004101F1004000F5801055
:40334000C00F704702464042104321F0004141EAD070C0F1FE4000F57000C00F704700BF0020704740F200010020C7F6F8717047C1F30A538446A3F57E73073B2DE9F0435E
:40338000CC0F132B83B006460F460D4639DC002B55DB4FF6FF72C0F20F021A4102EA0101014329D0520802EA0701014308BF8C460BD0132B08BF4FF0804C06D027EA02055A
:4033C0004FF4003252FA03F31D4344F278512B46C0F20001624601EBC40430CC2046294600F000F922462B46CDE90001DDE9000100F0F6F806460F463046394603B0BDE85A
:40340000F083332B09DDB3F5806FF5D102460B4600F0E8F806460F46EEE74FF0FF32143BDA400242E8D052080242CED020EA020C4FF0804252FA03F34CEA030CC5E721F02B
:4034400000430343D8D021F07F4344F2785123F47003C0F2000143EA000C01EBC401CCF100027B0C42EA0C0CD1E900675B0480464FEA1C32304602F40022394642EA030986
:4034800042464B4600F0AEF83B463246CDE90001DDE9000100F0A4F821F00043064643EAC477A9E700000000C1F30A532DE9D043144606460F46804689460A46002B2FD17D
:4034C00021F00042024327D040F200030022C4F2503300F039FA43F6B043CFF6FF739C4206460F46804689463ADBC1F30A530A46363B40F2FE711B198B421ADD32463B469A
:403500002BA1D1E9000100F05BF829A3D3E9002300F01AFA06460F4630463946BDE8D08340F2FF7C634526D01B1940F2FE718B42E4DC002BC2BF22F0FE4222F4700242EA25
:403540000357E9DC13F1350F1FDA4CF250339C42D4DC32463B4618A1D1E9000100F030F815A3D3E9002300F0EFF906460F4630463946BDE8D08302460B4600F033F806461A
:403580000F4630463946BDE8D083363322F0FE4222F47002304642EA035740F2000339460022C3F6904300F0CFF906460F46B3E79C7500883CE4377E59F3F8C21F6EA5018E
:4035C00003F0004321F0004230B40D46044643EA020130BC704700BF81F0004102E000BF83F0004330B54FEA41044FEA430594EA050F08BF90EA020F1FBF54EA000C55EAF7
:40360000020C7FEA645C7FEA655C00F0E2804FEA5454D4EB5555B8BF6D420CDD2C4480EA020281EA030382EA000083EA010180EA020281EA0303362D88BF30BD11F0004F8E
:403640004FEA01314FF4801C4CEA113102D0404261EB410113F0004F4FEA03334CEA133302D0524263EB430394EA050F00F0A780A4F10104D5F1200E0DDB02FA0EFC22FA2E
:4036800005F2801841F1000103FA0EF2801843FA05F359410EE0A5F120050EF1200E012A03FA0EFC28BF4CF0020C43FA05F3C01851EBE37101F0004507D54FF0000EDCF1E2
:4036C000000C7EEB00006EEB0101B1F5801F1BD3B1F5001F0CD349085FEA30004FEA3C0C04F101044FEA445212F5800F80F09A80BCF1004F08BF5FEA500C50F1000041EB1A
:40370000045141EA050130BD5FEA4C0C404141EB010111F4801FA4F10104E9D191F0000F04BF01460020B1FA81F308BF2033A3F10B03B3F120020CDA0C3208DD02F1140C57
:40374000C2F10C0201FA0CF021FA02F10CE002F11402D8BFC2F1200C01FA02F120FA0CFCDCBF41EA0C019040E41AA2BF01EB0451294330BD6FEA04041F3C1CDA0C340EDC90
:4037800004F11404C4F1200220FA04F001FA02F340EA030021FA04F345EA030130BDC4F10C04C4F1200220FA02F001FA04F340EA0300294630BD21FA04F0294630BD94F0B6
:4037C000000F83F4801306BF81F480110134013D4EE77FEA645C18BF7FEA655C29D094EA050F08BF90EA020F05D054EA000C04BF1946104630BD91EA030F1EBF0021002007
:4038000030BD5FEA545C05D14000494128BF41F0004130BD14F580043CBF01F5801130BD01F0004545F0FE4141F470014FF0000030BD7FEA645C1ABF194610467FEA655C63
:403840001CBF0B46024650EA013406BF52EA033591EA030F41F4002130BD00BF90F0000F04BF0021704730B54FF4806404F132044FF000054FF0000150E700BF90F0000F33
:4038800004BF0021704730B54FF4806404F1320410F0004548BF40424FF000013EE700BF42004FEAE2014FEA31014FEA02701FBF12F07F4393F07F4F81F06051704792F082
:4038C000000F14BF93F07F4F704730B54FF4607401F0004521F0004120E700BF50EA010208BF704730B54FF000050AE050EA010208BF704730B511F0004502D5404261EB3B
:4039000041014FF4806404F132045FEA915C3FF4DCAE4FF003025FEADC0C18BF03325FEADC0C18BF033202EBDC02C2F1200300FA03FC20FA02F001FA03FE40EA0E0021FA4D
:4039400002F11444C1E600BF70B54FF0FF0C4CF4E06C1CEA11541DBF1CEA135594EA0C0F95EA0C0F00F0DEF82C4481EA030621EA4C5123EA4C5350EA013518BF52EA0335FA
:4039800041F4801143F4801338D0A0FB02CE4FF00005E1FB02E506F00042E0FB03E54FF00006E1FB03569CF0000F18BF4EF0010EA4F1FF04B6F5007F64F5407404D25FEADB
:4039C0004E0E6D4146EB060642EAC62141EA55514FEAC52040EA5E504FEACE2EB4F1FD0C88BFBCF5E06F1ED8BEF1004F08BF5FEA500E50F1000041EB045170BD06F00046EF
:403A000046EA010140EA020081EA0301B4EB5C04C2BFD4EB0C0541EA045170BD41F480114FF0000E013C00F3AB8014F1360FDEBF002001F0004170BDC4F10004203C35DAC4
:403A40000C341BDC04F11404C4F1200500FA05F320FA04F001FA05F240EA020001F0004221F0004110EBD37021FA04F642EB06015EEA430E08BF20EAD37070BDC4F10C045F
:403A8000C4F1200500FA04F320FA05F001FA04F240EA020001F0004110EBD37041F100015EEA430E08BF20EAD37070BDC4F1200500FA05F24EEA020E20FA04F301FA05F27C
:403AC00043EA020321FA04F001F0004121FA04F220EA020000EBD3705EEA430E08BF20EAD37070BD94F0000F0FD101F00046400041EB010111F4801F08BF013CF7D041EA7C
:403B0000060195F0000F18BF704703F00046520043EB030313F4801F08BF013DF7D043EA0603704794EA0C0F0CEA135518BF95EA0C0F0CD050EA410618BF52EA4306D1D17B
:403B400081EA030101F000414FF0000070BD50EA410606BF1046194652EA430619D094EA0C0F02D150EA013613D195EA0C0F05D152EA03361CBF104619460AD181EA03014F
:403B800001F0004141F0FE4141F470014FF0000070BD41F0FE4141F4780170BD70B54FF0FF0C4CF4E06C1CEA11541DBF1CEA135594EA0C0F95EA0C0F00F0A7F8A4EB0504FC
:403BC00081EA030E52EA03354FEA013100F088804FEA03334FF0805545EA131343EA12634FEA022245EA111545EA10654FEA00260EF000419D4208BF964244F1FD0404F557
:403C0000407402D25B084FEA3202B61A65EB03055B084FEA32024FF480104FF4002CB6EB020E75EB030E22BFB61A754640EA0C005B084FEA3202B6EB020E75EB030E22BF5B
:403C4000B61A754640EA5C005B084FEA3202B6EB020E75EB030E22BFB61A754640EA9C005B084FEA3202B6EB020E75EB030E22BFB61A754640EADC0055EA060E18D04FEA37
:403C8000051545EA16754FEA06164FEAC30343EA52734FEAC2025FEA1C1CC0D111F4801F0BD141EA00014FF000004FF0004CB6E711F4801F04BF01430020B4F1FD0C88BF08
:403CC000BCF5E06F3FF6AFAEB5EB030C04BFB6EB020C5FEA500C50F1000041EB045170BD0EF0004E4EEA113114EB5C04C2BFD4EB0C0541EA045170BD41F480114FF0000E47
:403D0000013C90E645EA060E8DE60CEA135594EA0C0F08BF95EA0C0F3FF43BAF94EA0C0F0AD150EA01347FF434AF95EA0C0F7FF425AF104619462CE795EA0C0F06D152EA16
:403D400003353FF4FDAE1046194622E750EA410618BF52EA43067FF4C5AE50EA41047FF40DAF52EA43057FF4EBAE12E74FF0FF3C06E000BF4FF0010C02E000BF4FF0010C1D
:403D80004DF804CD4FEA410C7FEA6C5C4FEA430C18BF7FEA6C5C1BD001B050EA410C0CBF52EA430C91EA030F02BF90EA020F0020704710F1000F91EA030F58BF994208BF27
:403DC00090422CBFD8176FEAE37040F0010070474FEA410C7FEA6C5C02D150EA013C07D14FEA430C7FEA6C5CD6D152EA033CD3D05DF8040B704700BF8446104662468C46B8
:403E00001946634600E000BF01B5FFF7B7FF002848BF10F1000F01BD4DF808EDFFF7F4FF0CBF012000205DF808FB00BF4DF808EDFFF7EAFF34BF012000205DF808FB00BFD2
:403E40004DF808EDFFF7E0FF94BF012000205DF808FB00BF4DF808EDFFF7CEFF94BF012000205DF808FB00BF4DF808EDFFF7C4FF34BF012000205DF808FB00BF4A0011D275
:403E800012F5001211D20DD56FF47873B3EB62520ED44FEAC12343F0004343EA505323FA02F070474FF00000704750EA013002D14FF0FF3070474FF00000704748F21013CD
:403EC000C1F6FF7318687047032A2DE9F0070BD83AB1002311F803C000F803C001339342F8D1BDE8F007704782180C46034603E014F8011C03F8011C03F003061946A446ED
:403F000001330134002EF3D11CF00304634608BFC1EB020C68D06542C4F1040A0CEB050733464FEACA0A5CF805604FEAC408551A08E057F8044F264604FA0AF449EA040464
:403F4000CC5004335C18032D26FA08F9A5F104050CEB0306EDDC002302E0F15CE154013319199142F9D3BCE753F8404C41F8404C53F83C4C41F83C4C53F8384C41F8384CD6
:403F800053F8344C41F8344C53F8304C41F8304C53F82C4C41F82C4C53F8284C41F8284C53F8244C41F8244C53F8204C41F8204C53F81C4C41F81C4C53F8184C41F8184CC1
:403FC00053F8144C41F8144C53F8104C41F8104C53F80C4C41F80C4C53F8084C41F8084C53F8044C41F8044C1C460D4640334031BCF13F0FACF1400CB6DC21462B46541B67
:404000000FE051F8105C43F8105C51F80C5C43F80C5C51F8085C43F8085C51F8045C43F8045C0F2C0D469C4601F1100103F11003A4F11004E5DCCCEB0201002303E0EC5869
:404040004CF8034004335E19032903EB0C04A1F10401F4DC7FE700BF08B500F017F8074800B10068064901B109680022FCF780FC044B0BB1AFF30080FEE700BF000000005D
:404080000000000000000000FEE7000070B544F2985644F29855C0F20006C0F20005761BB61006D0002455F8243001349847A642F9D844F2985544F2A056C0F20005C0F2C9
:4040C0000006761B00F062FAB61006D0002455F8243001349847A642F9D870BD000000006A865451BCCADA3F89CDC7B5A162DC3F2F1A321EA512DE3FB8770DFAD2DBDF3FF0
:404100002104E44BA8E0E03FE7E5B0FB8EE1E13F8B6CE7FBA9F1E23F6EA301BC0512E43FEE9579ABAE43E53FBA490C022B87E63FE2CFF0660DDEE73FC233A1496249E93F74
:40414000808386898C8F9295989B9EA2A5A7AAADB0B3B6B9BCBEC1C4C6C9CBCED0D3D5D7DADCDEE0E2E4E6E8EAEBEDEEF0F1F3F4F5F6F8F9FAFAFBFCFDFDFEFEFEFFFFFF55
:40418000FFFFFFFFFEFEFEFDFDFCFBFAFAF9F8F6F5F4F3F1F0EEEDEBEAE8E6E4E2E0DEDCDAD7D5D3D0CECBC9C6C4C1BEBCB9B6B3B0ADAAA7A5A29E9B9895928F8C89868396
:4041C000807C797673706D6A6764615D5A5855524F4C494643413E3B393634312F2C2A282523211F1D1B1917151412110F0E0C0B0A090706050504030202010101000000E8
:40420000000000000101010202030405050607090A0B0C0E0F1112141517191B1D1F212325282A2C2F313436393B3E414346494C4F5255585A5D6164676A6D707376797C27
:40424000FFFFFFFFFFFFFFFFFFFFFFFFFFFFFFFFFFFFFFFFFFFFFFFFFFFFFFFFFFFFFFFFFFFFFFFFFFFFFFFFFFFFFFFFFFFFFFFFFFFFFFFFFFFFFFFFFFFFFFFFFFFFFFFF7E
:40428000FFFFFFFFFFFFFFFFFFFFFFFFFFFFFFFFFFFFFFFFFFFFFFFFFFFFFFFFFFFFFFFFFFFFFFFFFFFFFFFFFFFFFFFFFFFFFFFFFFFFFFFFFFFFFFFFFFFFFFFFFFFFFFFF3E
:4042C00000000000000000000000000000000000000000000000000000000000000000000000000000000000000000000000000000000000000000000000000000000000BE
:40430000000000000000000000000000000000000000000000000000000000000000000000000000000000000000000000000000000000000000000000000000000000007D
:40434000808182838485868788898A8B8C8D8E8F909192939495969798999A9B9C9D9E9FA0A1A2A3A4A5A6A7A8A9AAABACADAEAFB0B1B2B3B4B5B6B7B8B9BABBBCBDBEBF5D
:40438000C0C1C2C3C4C5C6C7C8C9CACBCCCDCECFD0D1D2D3D4D5D6D7D8D9DADBDCDDDEDFE0E1E2E3E4E5E6E7E8E9EAEBECEDEEEFF0F1F2F3F4F5F6F7F8F9FAFBFCFDFEFF1D
:4043C000000102030405060708090A0B0C0D0E0F101112131415161718191A1B1C1D1E1F202122232425262728292A2B2C2D2E2F303132333435363738393A3B3C3D3E3FDD
:40440000404142434445464748494A4B4C4D4E4F505152535455565758595A5B5C5D5E5F606162636465666768696A6B6C6D6E6F707172737475767778797A7B7C7D7E7F9C
:404440000000000000000000000000000000F03F000000000000084000000000000018C000000000000028C000000000000038C000000000000042C000000000000044C007
:40448000A8010000A00100009801000090010000880100008801000088010000880100003098FF1F3098FF1F3098FF1F3098FF1F3098FF1F3098FF1F3098FF1F3098FF1F34
:4044C0003098FF1F3098FF1F3098FF1F3098FF1F3098FF1F000000480C000048980200481800004898000048180100489801004818020048B802004838030048B803004854
:4045000038040048B804004838050048B805004838060048B806004838070048B807004838080048B808004838090048B8090048380A0048B80A0048380B0048706F7700B8
:404540007371727400000000000000000000F03F000000000000F83F000000000000000006D0CF43EBFD4C3E00000000000000000000004003B8E23F000000000000304322
:4045800000000000000030C343000000F8B500BFF8BC08BC9E467047210200000D120000F8B500BFF8BC08BC9E4670470D02000000000000C84500000881FF1F00010000C1
:4045C000381600000000000000000000010100001481FF1F0000000000000000000000000000000000000000000000000000000000000000884500000000000000000000EB
:40460000000000000000000000000000000000000000000000000000000000000000000000000000000000000000000000000000000000000000000000000000000000007A
:40464000000000000000000000000000000000000000000000000000000000000000000000000000000000000000000000000000000000000000000000000000000000003A
:4046800000000000000000000000000000000000000000000000000000000000000000000000000000000000000000000000000000000000000000000000000000000000FA
:4046C00000000000000000000000000000000000000000000000000000000000000000000000000000000000000000000000000000000000000000000000000000000000BA
:020000040003F7
:0200000480007A
:4000000000800000000000000000270000100000000000000000270000000000000000000000000000000000000000000000000000000000000000000000000000000000E2
:40004000000000000000000000000000000000000008000000000004000000000000000000000000000000000000000000000000000400000000000100000000000000006F
:4000800000000000000000000000000000000000000000000000000008020229001300000413020000100000000000000101000A0000000000000000000000000E000000B5
:4000C0000E00000002000C0400100103010C0E200000000000001010030000000000050114FF07FF4020F0050800000000000800040404040090000140A840200000000001
:400100000000000000000000000000000000000000000000000000005C802200000000000930B040EC00110000380343000000001438004500160008000210000000206FCD
:40014000F0000C00000000001F0BC074208000070800008A000014102604000000E0C00B1AFFFFFF0000F0440C000000010000000404040400000001000000000000C000CA
:4001800000004002000000000000000000000000000000000000000000000000000000000000000000000000040000000000010000000100000000000000000000000200F5
:4001C0000000000000000200010002000000040000000000000045000000000000000000000000000000000000000000180000000400000400000001000000000000000090
:40020000000000000000000000000000000000000000000000000000421F00604C60A300010000000040B300FF0000134F01900004200000F3030C00080200000074400BD9
:400240000C64001B037F000000048C037C700F080080AA0000000001540106000200E00C18FFFFFF62A0F0410C0000000000021304040404000000010000000000004002AB
:400280000010301000101012000000000000000000000000000000000000000000000000000000000000000000000000000F38720000000000000000000000000000000003
:4002C00000000000000000000000000000000000000000000000000000000000000000000000000000000000400000000000000000000000000000000000000000000000BE
:4003000000000000000000000000000000000000000000000000000000000000000000000000010000000000000000000000000000000000000000000000000000000000BC
:40034000400000000000000000000000000000000000000000000000000000000000000000000000000000000000000000000000000000000000000000000000000000003D
:40038000000000000000000000000000000000000000000000000000000000000000000000000000000000000000000000000000000000000000000000000000000000003D
:4003C00000000000000000000000000000000000000000000000000000000000000000000000000000000000000000000000000000000000000000000000020000000000FB
:4004000000000000000000000000000000000000000000000000000000000000000000000000000000000000000000000000000000000000000000000000000000000000BC
:40044000000000000000000000000000000000000000000000000000000000000000000000000000000000000000000000000000000000000000000000000000000000007C
:400480000000000000000000000000000000000000000000000000000000000000000000000080000000000000000000000000000000000000000000010008002000004152
:4004C0000008000000004008011400002000501020480800080040084480080000000059014000000008008000000800000000510154010020010000000000080000001180
:400500000000000000010400000840801000100440000000A001000801008000000000000000000000000000000000000000000000000000000000000000000084000000DC
:400540001080000000000000005400004400400040000000114001000000000000008800000000000000008040000000000000000000000000000000DA0054007700000094
:400580000000C800B200AF00A20020000000F80008000000000000000000000000000000000000000000000000000000000000000000000000000000400088200000000068
:4005C0000200250000044004910000100080100002802129000000850840050400000000020001290000000000500802000000008A00000000000000460000020000000061
:40060000048000000000000000041000000000000000020000020000000000000000000A0054000000000000C41004100000000000000000000000000000000000020400D2
:4006400000000000000000000000000000000000000000000000000000000000000000000000000000000000000000000000000000000000000000000F007F00AF0000003D
:4006800000000F000F000B000D000C000000810030000000000000000000000000000000000000000000000000000000000000000000000000000000000000000000000047
:4006C00000000000000000000000000000000000000000000000000000000000000000200000000000000000000000000000000000000000000000000000000000000000DA
:400700000000000000000000000000000000000000000000000000000000000000000000000000000000000000000000000000000000000000000000000000200000000099
:400740000000000000000000000000000000000000000000000000000000000000000000000000000000000000000000000000000000000000000000000000000000000079
:400780000000000000000000000000000000000000000000000000000000000000000000000000000000000000000000000000000000000000000000000000000000000039
:4007C00000000000000000000000000000000000000000000000000000000000000000000000000000000020000000000000000000000000000000000000000000000000D9
:4008000000000000000000000000000000000000000000000000000000000000000000000000000000001000000000000000000000000000000000000000000000000000A8
:400840000000000000000000000000000000000000000000000000000000000000000020000000000000000000000000000000000000000000000000000000000000000058
:400880000000000000000000000000000000000000000000000000000000000000000000000000000000000000000000000000000000000000000000000000000000000038
:4008C00000000000000000000000000000000000000000000000000000000000000000000000000000000000000000000000000000000000000000000000000000000000F8
:4009000000000000000000000000000000000000000000000000000000000000000000000000008000000000000000000000000400000000000000000000008400000000AF
:400940000000000000000000000000000000000000000000000000000000000000000020000000000000000000000000000000000000000000000000000000000000000057
:400980000000000000000000000000000000000000000000600000000000800000000000000000000000000000000000000000000000000000000000000000000000000057
:4009C00000000000000000000000000000000000000000000000000000000000000000200000000000000000000000000000000000000000000000000000000000000000D7
:400A000000000000000000000000000000000000000000000000000000000000000000000000000000000000000000000000000000000000000000000000000000000000B6
:400A40000000000000000000000000000000000000000000000000000000000000000000000000000000000000000000000000000000000000000000000000000000000076
:400A80000000000000000000000000200000000000000000000000000000000000000000000000000000000000000000000000000000000000000000000000000000000016
:400AC00000000000000000000000000000000000000000000000000000000000000000000000000000000000000000000000000000000000000000000000000000000000F6
:400B00000000000000000000000000002000000000000000000000000000000000000000000000000000000000000000000000000000000000000000010100000000000093
:400B4000000001010000000001000001010001000400000040000000000000000000000000000000000000000000000000000000000000000000000000000000000000002B
:400B80000000000000000000000000000000000000000000000000000000000000000000000000000000000000000000000000000000000000000000000000000000000035
:400BC00000000000000000000000000000000000000000000000000000000000000000000000000000000000000000000000000000000000000000000000000000000000F5
:400C000000000000000000000000000000000000000000000000000000000000000000000000000000000000000000000000000000000000000000000000000000000000B4
:400C40000000000000000000000000000000000000000000000000000000000000000000000000000000000000000000000000000000000000000000000000000000000074
:0200000490006A
:0400000000004005B7
:0200000490105A
:04000000BC90ACAF55
:0200000490303A
:0200000047DADD
:0200000490501A
:0C00000000012E12306900012E2F784301
:0200000490402A
:4000000000000000000000000000000000000000000000000000000000000000000000000000000000000000000000000000000000000000000000000000000000000000C0
:400040000000000000000000000000000000000000000000000000000000000000000000000000000000000000000000000000000000000000000000000000000000000080
:400080000000000000000000000000000000000000000000000000000000000000000000000000000000000000000000000000000000000000000000000000000000000040
:4000C0000000000000000000000000000000000000000000000000000000000000000000000000000000000000000000000000000000000000000000000000000000000000
:00000001FF
