:03000000020100FA
:100100007590FF75B0FF120151904005E0540160F9
:10011000031201A3120206BD0127747012021678A1
:1001200000E844E0F590902000E07901D9FEE0126B
:10013000025412021608B81CE8EC1202167D008068
:10014000C8906005E0540160C0906000E07D0180CF
:10015000B87C01EC232344E3F5B07D01758920755B
:100160008840758DFD7598507483904003F09060C1
:1001700003F07404904000F07402906000F074008A
:10018000904001F0906001F07401904002F074031F
:10019000904003F0906003F07400904001F0906094
:1001A00001F022904000E0120223B4902E9040050E
:1001B000E0540160F8904000E0C0E0749012021634
:1001C000D0E0120223120216904005E0540160F8BC
:1001D000904000E012022312021622B480279040C1
:1001E00005E0540160F8904000E0C0E07480120225
:1001F00016D0E0120223120216904005E05401606E
:10020000F8904000E022E590C40354076007FC2307
:100210002344E3F5B022906000F0906005E05420A4
:1002200060FB22C0E0120232120254EA120254D0E1
:10023000E022FA540F24F650022407243ACAC45488
:100240000F24F650022407243A223098FDE59954F1
:0C0250007FC29822C299F5993099FD22D6
:00000001FF
