:400000000080002011000000691500006915000080B500AF024A034B1B68136001F0AEFABC760040FA460040080002230000087608000323000010760800042300002876E8
:4000400008000523000030760500062300002070050007230000307005000823000060700500FE230000707010000A220000205130000B220000405110000C220000C0512D
:400080001000FE220000F05180070E220000000000060F220000000A80011022000000148001112200000016800112220000001A8000132200000041800014220000004289
:4000C0008000152200000043000316220000004480001722000000498000FE220000004D07001923000008520C001A230000004F08001B230000985A20001C2300007064F8
:400100002000FE230000706508001E230000005180001F23000000088000202300008008800021230000001880002223000080181000232300001050100024230000005064
:40014000800025230000804D800026230000004C800027230000804C8000282300000047800029230000804780002A230000801B80002B230000801580002C2300000019E7
:4001800080002D230000801980002E230000801780002F23000000098000302300008009800031230000800780003223000080498000332300000048800034230000804881
:4001C00080003523000080438000362300008042800037230000804180003823000000408000FE23000080400100000001000000010000000048014001000000004800409D
:400200000100000000200140010000000020004010B5054C237833B9044B13B10448AFF300800123237010BDF881FF1F0000000094470000084B10B51BB108480849AFF3C0
:4002400000800848036803B910BD074B002BFBD0BDE81040184700BF0000000094470000FC81FF1F0881FF1F00000000F0B5A1B000AFF860B9607A603B600123FB6700230E
:40028000BB6705E0FB6F5B00FB67BB6F0133BB67BA6FBB689A42F5DBFB6F5B107B6400237B670023BB6750E0BA6F7B6F9A4237DABB6FDB007A681344D3E90023C7E90E236C
:4002C000BB6FDB003A681344D3E90023C7E90C23BB6FDB007A68D1187B6FDB007A681344D3E90023C1E90023BB6FDB003A68D1187B6FDB003A681344D3E90023C1E90023CE
:400300007B6FDB007A68D118D7E90E23C1E900237B6FDB003A68D118D7E90C23C1E900237B6C3B6706E07A6F3B6FD31A7B673B6F5B103B673A6F7B6F9A42F4DD7A6F3B6F08
:4003400013447B67BB6F0133BB67FB6F5A1EBB6F9A42A9DC4FF00002AA4BC7E918234FF000024FF00003C7E916230123BB660023FB663CE1BB6EFB62BB6E5B00BB664FF07A
:400380000002A14BC7E914234FF000024FF00003C7E9122300237B67E6E07B6FBB67A3E0BA6FFB6A1344BB62BB6ADB007A681344D3E9002310461946D7E9142303F0F0FEFF
:4003C00002460B4614461D46BB6ADB003A681344D3E9002310461946D7E9122303F0E0FE02460B462046294603F026FD02460B46C7E90823BB6ADB003A681344D3E9002384
:4004000010461946D7E9142303F0CAFE02460B4614461D46BB6ADB007A681344D3E9002310461946D7E9122303F0BAFE02460B462046294603F002FD02460B46C7E90623C0
:40044000BB6ADB007A68D418BB6FDB007A681344D3E9002310461946D7E9082303F0ECFC02460B46C4E90023BB6ADB003A68D418BB6FDB003A681344D3E90023104619468D
:40048000D7E9062303F0D8FC02460B46C4E90023BB6FDB007A68D418BB6FDB007A681344D3E9002310461946D7E9082303F0C6FC02460B46C4E90023BB6FDB003A68D418E2
:4004C000BB6FDB003A681344D3E9002310461946D7E9062303F0B2FC02460B46C4E90023BA6FBB6E1344BB67BA6FFB6F9A42FFF657AFD7E91401D7E9182303F051FE0246E8
:400500000B4614461D46D7E91201D7E9162303F047FE02460B462046294603F08DFC02460B46C7E90423D7E91401D7E9162303F037FE02460B4614461D46D7E91201D7E970
:40054000182303F02DFE02460B462046294603F075FC02460B46C7E91223D7E90423C7E914237B6F01337B677A6FFB6A9A42FFF614AF4FF000002449D7E9182303F05CFC30
:4005800002460B46104619464FF000024FF0804303F030FF02460B461046194602F08CFCC7E91601FB68012B05D1BB6DBB65FB6D83F00043FB65D7E918014FF00002124B57
:4005C00003F03CFC02460B46104619464FF000024FF0804303F00EFF02460B461046194602F06AFCC7E91801FB6E0133FB66FA6EBB689A42FFF6BEAEFB68012B3BD100234C
:40060000BB6734E00000F0BF0000F03FBB6FDB007A68D618BB6FDB007A681344D3E90045F86F03F057FD02460B462046294603F0E1FE02460B46C6E90023BB6FDB003A6892
:40064000D618BB6FDB003A681344D3E90045F86F03F040FD02460B462046294603F0CAFE02460B46C6E90023BB6F0133BB67BA6FFB6F9A42CADB8437BD46F0BDB0B582B0CC
:4006800000AF7A4B1B78042B00F2C28001A252F823F000BFA9060000B90600001707000095070000B107000071494FF000024FF00003C1E90023ACE06E4BD3E900016E4B6C
:4006C000D3E9002303F06CFD02460B4610461946674BD3E9002303F0B1FB02460B466449C1E90023624BD3E90001634BD3E9002303F0DCFF0346002B00D18AE05E4BD3E955
:4007000000235B49C1E90023584B1B780133DAB2564B1A707DE0564BD3E90045574BD3E90001554BD3E9002303F03AFD02460B462046294603F080FB02460B464C49C1E949
:4007400000234F4BD3E900014B4BD3E9002303F027FD02460B4610461946454BD3E9002303F0A4FF0346002B00D152E0444BD3E90001414BD3E9002303F012FD02460B4657
:400780003B49C1E90023394B1B780133DAB2374B1A703EE03A4BD3E90001374BD3E9002303F0FEFC02460B463149C1E9002330E02F4BD3E90045334BD3E900012E4BD3E97C
:4007C000002303F0EDFC02460B462046294603F033FB02460B462649C1E90023244BD3E90023104619464FF000024FF0000303F053FF0346002B00D10BE01D494FF00002F4
:400800004FF00003C1E90023184B00221A7000E000BF00237B601BE01B4A7B6813441B78184603F057FC124BD3E9002303F0B8FC02460B461046194603F04CFF0346D9B2E9
:40084000124A7B6813440A461A707B6801337B607B68FF2BE0DD0D484FF4807101F0BEFF01F028FA0837BD46B0BD00BF3383FF1F3883FF1F6081FF1F5881FF1F6881FF1FEA
:400880007081FF1F7881FF1F2882FF1F4093FF1FB0B582B000AF01F0A9FAC1E101F0C6FA0346FB71B04B1B68032B00F2B28101A252F823F0C5080000F5080000170A0000BB
:4008C000350A0000FB79802B08D0902B02D0702B08D00BE0A44B01221A6007E0A24B02221A6003E0A04B03221A6000BF9F4B00221A6095E19D4B1B68002B5CD19C4AFB7994
:400900001370FA799B4BA3FB0213D9080B465B000B449B00D31ADAB2974B1A70FB79954AA2FB0323DB08DAB2944B1A70934B1B781A46012393401A46914B1A608E4B1B78F4
:40094000904ADB001344D3E90023104619464FF000028D4B03F024FC02460B4614461D46874B1B68184603F0A5FB02460B462046294603F015FC02460B4675A1D1E9000133
:4009800003F038FD02460B46104619464FF000027E4B03F051FA02460B461046194603F099FE03469BB21846012101F0A7FD6F4B01221A602EE06D4B1B68012B2AD1FB79BB
:4009C000184603F077FB02460B461046194662A3D3E9002303F030FA02460B46104619464FF000026A4B03F005FD02460B464FF00000684902F0E8F802460B466649C1E95F
:400A00000023664B01221A70584B00221A60564B00221A6004E1564B1B78FA799A4202D15E4B04221A70514B00221A604E4B00221A60F5E04D4B1B680F2B05DC4B4B1B6894
:400A40005749FA79CA54DEE0484B1B680F2B2EDD464B1B68172B2ADC444B1B68A3F11004FB79184603F036FB02460B46104619464FF000024B4B03F093FB02460B4610468B
:400A8000194637A3D3E9002303F0B4FC02460B46104619464FF00002434B03F0CDF902460B464248E1000144C1E90023ABE02F4B1B68172B40F39A802C4B1B681B2B00F345
:400AC00095802A4B1B68182B12D1FB79C3F58073184603F0FFFA02460B464FF000002B4903F088FC02460B463149C1E900237CE01E4B1B68192B12D1FB79C3F580731846CB
:400B000003F0E8FA02460B464FF000001F4903F071FC02460B462749C1E9002365E0134B1B681A2B4AD1FB79C3F1FF03184603F0D1FA02460B461046194609A3D3E90023C5
:400B400003F058FC02460B461B49C1E900234CE000000000A4788F410000000000C05F400000000000E06F404094FF1F4494FF1F3083FF1FABAAAAAA3183FF1F3283FF1F57
:400B80005081FF1F98470000000070400000F03F00005040000024405881FF1F3383FF1F1882FF1F00004540000042401081FF1F6081FF1F6881FF1F7081FF1F1D4B1B685B
:400BC0001B2B12D1FB79C3F58073184603F082FA02460B464FF00000174903F00BFC02460B461649C1E900230DE00CE0144AFB791370144B00221A60134B01221A700D4B5D
:400C000000221A600CE00B4B1B680133094A136006E00C4B00221A60064B00221A6000BF01F060F90346002B7FF438AE0837BD46B0BD00BF4494FF1F0000F03F7881FF1F13
:400C40008081FF1F4094FF1F8181FF1FAFF300802DE9F043ADF5825D81B000AF01F00AF801F0ACFD022001F0C9FE01F051F8002307F5815202F11C021360002307F581526E
:400C800002F11C0213601BE0BB4A07F5815303F11C031B6813441978B84A07F5815303F11C031B6813440A461A7007F5815303F11C031B68013307F5815202F11C021360DC
:400CC00007F5815303F11C031B68FF2BDCDDAC4800F010FFAB4801F0DDFC62B6AA4B1B78002B00F03684A84B00221A70A74B1B78013B042B00F2D68101A252F823F000BFEF
:400D0000150D0000930D0000110E00008F0E00000D0F0000002307F5815202F11C0213602FE0954A07F5815303F11C031B6813441B78184603F0BEF902460B46944807F5EC
:400D4000815101F11C010968C9000144C1E90023904A07F5815303F11C031B68DB00D1184FF000024FF00003C1E9002307F5815303F11C031B68013307F5815202F11C0278
:400D8000136007F5815303F11C031B68FF2BC8DD89E1002307F5815202F11C0213602FE07D4A07F5815303F11C031B6813441B78184603F07FF902460B46754807F5815198
:400DC00001F11C010968C9000144C1E90023714A07F5815303F11C031B68DB00D1184FF000024FF00003C1E9002307F5815303F11C031B68013307F5815202F11C02136076
:400E000007F5815303F11C031B68FF2BC8DD4AE1002307F5815202F11C0213602FE05F4A07F5815303F11C031B6813441B78184603F040F902460B46554807F5815101F154
:400E40001C010968C9000144C1E90023514A07F5815303F11C031B68DB00D1184FF000024FF00003C1E9002307F5815303F11C031B68013307F5815202F11C02136007F50B
:400E8000815303F11C031B68FF2BC8DD0BE1002307F5815202F11C0213602FE0404A07F5815303F11C031B6813441B78184603F001F902460B46364807F5815101F11C016F
:400EC0000968C9000144C1E90023324A07F5815303F11C031B68DB00D1184FF000024FF00003C1E9002307F5815303F11C031B68013307F5815202F11C02136007F58153F3
:400F000003F11C031B68FF2BC8DDCCE0002307F5815202F11C021360BBE007F5815303F11C031B68002B00DA0F331B1107F5815202F10702137007F5815303F107031B7807
:400F4000184AD35C184603F0B5F802460B4607F5805101F11801C1E9002307F5815303F107031B780F2B1FD10E4B1B78184603F0B1F802460B4624E0F84700002882FF1F8F
:400F80007D060000910800008181FF1F8081FF1F4083FF1F408BFF1FF8480000F8490000F84A00001882FF1F07F5815303F107031B780133C24AD35C184603F08BF80246A5
:400FC0000B4607F5805101F11001C1E9002307F5805303F11003D3E9000107F5805303F11803D3E9002302F027FF02460B469046994607F5815303F11C031A68B14B134099
:40100000002B03DA013B63F00F030133184603F061F802460B46104619464FF00002AA4B03F0E8F902460B464046494603F0B8F802460B461046194607F5805303F1180354
:40104000D3E9002302F0FAFE02460B469F4807F5815101F11C010968C9000144C1E900239B4A07F5815303F11C031B68DB00D1184FF000024FF00003C1E9002307F58153CF
:4010800003F11C031B68013307F5815202F11C02136007F5815303F11C031B68FF2B7FF73CAF00E000BF01200821884A884BFFF7DDF886494FF00002864BC1E900230123F7
:4010C00007F5815202F11C021360B5E007F5815303F11C031B68012B06D1002307F5815202F11B0213700FE007F5815303F11C031B68013BB3FA83F3DBB2C3F1200307F506
:40110000815202F11B02137007F5815303F11B031B78714ADB001344D3E90023104619464FF000026D4B03F065F902460B464FF000006B4901F048FD07F5805303F1080379
:40114000C3E90001614A07F5815303F11C031B68DB001344D3E900231046194607F5805303F10803D3E9002303F01AF802460B46564807F5815101F11C010968C9000144A6
:40118000C1E9002307F5815303F11C031B68C3F580714E4A07F5815303F11C031B68DB001344D3E900234948C9000144C1E90023474A07F5815303F11C031B68DB001344AF
:4011C000D3E900231046194607F5805303F10803D3E9002302F0E4FF02460B463C4807F5815101F11C010968C9000144C1E9002307F5815303F11C031B68C3F58071344A06
:4012000007F5815303F11C031B68DB001344D3E90023144683F000452D4ACB001344C3E9004507F5815303F11C031B68013307F5815202F11C02136007F5815303F11C03CB
:401240001B68802B7FF742AF3B46204A19464FF40063084611461A4603F088FA07F500631B4A19464FF40063084611461A4603F07DFA3A4607F5006300200821FEF7F6FF25
:401280004FF000024FF0000307F5815101F11001C1E9002308A3D3E9002307F5815101F10801C1E90023002307F5815202F11C02136070E0AFF3008048E17A14AEFF6F40F2
:4012C0001882FF1F0F000080000030404083FF1F408BFF1F000060401081FF1F00003440000024403A4607F5815303F11C031B68DB001344D3E900231046194607F58153CA
:4013000003F10803D3E9002303F0DAF90346002B0FD03A4607F5815303F11C031B68DB001344D3E9002307F5815101F10801C1E900233A4607F5815303F11C031B68DB0068
:401340001344D3E900231046194607F5815303F11003D3E9002303F095F90346002B0FD03A4607F5815303F11C031B68DB001344D3E9002307F5815101F11001C1E9002363
:4013800007F5815303F11C031B68013307F5815202F11C02136007F5815303F11C031B68FF2B9FDD07F5815303F10803D3E9000107F5815303F11003D3E9002302F03CFDC7
:4013C00002460B4607F58051C1E90023002307F5815202F11C021360B0E03A4607F5815303F11C031B68DB001344D3E90023104619464FF000025A4B02F01EFD02460B467C
:401400001046194654A3D3E9002302F0C9FE02460B461046194607F58053D3E9002302F0E9FF02460B46104619464FF000024C4B02F004FD02460B46384607F5815101F1A2
:401440001C010968C9000144C1E900233A4607F5815303F11C031B68DB001344D3E9002301210E46104619463BA3D3E9002303F009F90346002B01D100231E46F3B283F04A
:401480000103DBB2002B1ED13A4607F5815303F11C031B68DB001344D3E9002301210E46104619464FF000024FF0000303F0EAF80346002B01D100231E46F3B283F001031E
:4014C000DBB2002B26D03A4607F5815303F11C031B68DB001344D3E90023104619461EA3D3E9002303F0CEF80346002B10D03A4607F5815303F11C031B68DB001344D3E911
:4015000000231046194603F0E5F80346DBB202E0FF2300E00023134907F5815202F11C0212680A44137007F5815303F11C031B68013307F5815202F11C02136007F58153E2
:4015400003F11C031B68FF2B7FF747AF012000F011FDFFF7C3BB00BF48E17A14AEFF6F40000060402882FF1F80B500AF03F0D2F803461B680C2B00D1FEE7FEE780B586B0C8
:4015800000AF224B7B61224B3B61204B7B6135E03B691B68FB603B695B68BB603B699B683B6000237B600CE0FB681A68BB681A60BB680433BB60FB680433FB607B68043398
:4015C0007B607A683B689A42EED13B69DB683B6000237B6008E0BB6800221A60BB680433BB607B6804337B607A683B689A42F2D13B6910333B617B69013B7B617B69002BAD
:40160000C6D103F08DF8FFF723FBFEE701000000504F000080B582B000AF184B184A1A60184A184B1B6843F40073136000237B600FE07B68032B04D8134A7B6852F8233091
:4016400000E0124B12497A6841F822307B6801337B607B682F2BECD90E4B1B78DAB20E4B1A700E4B0A4A1A6000F0D4F900F004FD0B4B00221A600837BD4680BD0CED00E0F7
:401680000004FA0514ED00E000000000691500000080FF1FBC7600400481FF1F08ED00E00081FF1F80B582B000AF78603960786800213A6803F065F80837BD4680BD00BFE9
:4016C00080B584B000AFF860B9607A60F868B9687A6803F04BF81037BD4680BD80B483B000AF0346FB71FEE780B582B000AF454B00221A60444B10221A70444B01221A70EE
:40170000434B00221A70434B4FF4E0721A80424B01221A70414B03221A70414B414A92B21A80414B47F608021A80404B00221A803F4B4FF480421A803E4B09221A703E4BA4
:401740000D221A703D4B18221A703D4B1D221A70BFF35F8F3B4B01221A70BFF35F8F00BF2C4B1B889BB2002BFAD100237B600DE07B68DA00344B13441946344A7B6852F8FC
:4017800023309BB20B807B6801337B607B68372BEED9BFF35F8F2B4B01221A70BFF35F8F00BF2B4B1B78DBB203F00103002BF8D100BF284B1B78DBB203F00103002BF8D120
:4017C00000BF254B1B78DBB203F00103002BF8D100BF224B1B78DBB203F00103002BF8D100BF1F4B1B78DBB203F00103002BF8D11C484FF090410622FFF762FF0837BD460F
:4018000080BD00BF4894FF1F007600401070004019700040007800400278004003780040047800402800000006780040047600400676004029700040397000406970004053
:4018400079700040147000400C780040F84B000018700040287000403870004068700040787000401051014080B582B000AF374B41221A80364B18221A70364B05221A80EE
:40188000354B19221A70354B40F271621A80344B18221A70334B02221A704FF0402308221A70314B03221A70304B314A1278D2B21A70304B40F242221A802F4B41F251227B
:4018C0001A800023FB7019237B6014E0FB785B00DAB22A4B1B78DBB203F00103DBB21343DBB203F00303FB704FF4F07001F040F97B68013B7B607B68002B02D0FB78032BB3
:40190000E4D17B68002B02D10320FFF7E7FE1C4B4FF480721A801A4B07221A70194B00221A70194B48221A70154B00221A70174B02221A70164A164B1B78DBB243F0070323
:40194000DBB213700837BD4680BD00BF80400040824000408440004086400040884000408A4000400043004000420040A14600400801004922420040204200402542004090
:4019800004400040064000400840004001400040A243004080B483B000AF144B1B78FB71134AFB7903F00703DBB21370114AFB791B09DBB21370104B04221A700F4B802293
:4019C0001A700F4B10221A700E4BC0221A700E4B40F201121A800D4B80221A700C4B44221A700C37BD465DF8047B7047CF0100496E5800406F5800400D5100403D5100401C
:401A0000985A0040005B0040465B0040585B00407658004080B500AF72B6284B00221A70FFF722FF264A264B1B78DBB243F00403DBB21370FFF758FE22480421FFF732FE69
:401A400021480421FFF72EFE204A204B1B78DBB243F00203DBB213701D4A1D4B1B78DBB243F00203DBB213701A4A1A4B1B78DBB243F04003DBB21370174A174B1B78DBB2F0
:401A800043F01003DBB21370144815490822FFF717FE144814490A22FFF712FE134A134B1B78DBB243F00803DBB21370FFF772FF0F4808490E22FFF703FE80BD00480040D2
:401AC000E846004000760040087600400350014013500140A0430040C2430040025100400C0D004810510040140D004822430040B043004080B582B000AF786000F03CF87C
:401B0000786800F009F8072000F018F800F028F80837BD4680BD00BF80B485B000AF7860054B1B68FB60FB6884337A681A601437BD465DF8047B704708ED00E080B483B0B6
:401B400000AF0346FB71054AFB795B01DBB213700C37BD465DF8047B704700BF11E400E080B400AF034B4FF400321A60BD465DF8047B704700E100E080B400AF034B4FF48A
:401B800000321A60BD465DF8047B704780E100E080B500AF214A214B1B78DBB203F00103DBB213701E4A1E4B1B78DBB223F00303DBB213701B4A1B4B1B78DBB223F030037D
:401BC000DBB21370174A174B1B78DBB243F03003DBB21370134A134B1B78DBB223F00F03DBB213700F4A0F4B1B78DBB243F00F03DBB213700C4A0C4B1B78DBB243F0010340
:401C0000DBB2137040F2E73000F060F840F2E73000F06EF8082000F03DF880BD004F0040024F00400B4F0040014F004080B400AF0D4A0D4B1B78DBB243F00103DBB2137097
:401C40000A4A0A4B1B78DBB243F00103DBB21370074A074B1B78DBB243F00103DBB21370BD465DF8047B7047A3430040B3430040004F004080B500AF054B1B78002B04D10A
:401C8000FFF786FF024B01221A70FFF7CFFF80BD5094FF1F80B483B000AF0346FB71044AFB7913700C37BD465DF8047B704700BF034F004080B400AF034B1B78DBB21846CB
:401CC000BD465DF8047B7047034F004080B485B000AF0346FB80FB88FB81044AFB8913801437BD465DF8047B704700BF044F004080B483B000AF0346FB80044AFB8813801B
:401D00000C37BD465DF8047B704700BF064F004080B500AF054B1B78002B04D100F008F8024B01221A7000F02FF880BD5194FF1F80B500AF00200D4900F096FB0020072153
:401D400000F0BAFB0A4B00221A700A4B72221A70094B20221A70094B06221A70084B47221A70084B00221A7080BD00BFA11F00005294FF1F886400408964004028650040F9
:401D8000386500408965004080B582B000AF00F00EFF0346FB71114A104B1B78DBB243F02003DBB213700E4A0D4B1B78DBB243F01003DBB213700B4B01221A600A4A0A4B52
:401DC0001B78DBB243F01003DBB21370FB79184600F0F1FE0837BD4680BD00BF986400409964004000E100E09965004080B483B000AF0C4B1B78DBB203F07F03FB710A4B43
:401E00001B78DBB2002B06D0FB7963F07F03FB71054B00221A70FB7918460C37BD465DF8047B7047696400405694FF1F80B483B000AF0023FB71234B01221A60224B1B7868
:401E4000BB71224B1B787B71214B1B78DBB2002B03D1BA797B799A4218D0BB791D4AD35CFB71BB790133BB71BB790F2B01D90023BB71154ABB791370154B1B78DBB2002BB2
:401E800003D0134B00221A7012E011E0124B1B783B713B7903F02003002B09D00F4B1B78FB713B7903F01E03002B01D00023FB710B4B01221A60FB7918460C37BD465DF8EC
:401EC000047B704780E100E05394FF1F5494FF1F5594FF1F6094FF1F696400404864004000E100E080B483B000AF1D4B01221A601C4B1B78DAB21C4B1B78DBB29A420AD1AE
:401F00001A4B1B78DBB2002B02D01023FB711DE00023FB711AE0134B1B78DAB2124B1B78DBB29A4208D2104B1B78DAB20D4B1B78DBB2D31AFB7109E00B4B1B78DAB2094B4D
:401F40001B78DBB2D31ADBB21033FB71084B01221A60FB7918460C37BD465DF8047B704780E100E05394FF1F5494FF1F5594FF1F00E100E080B483B000AF0346FB71064B55
:401F80001B78002B02D0054AFB7913700C37BD465DF8047B704700BF5194FF1F4965004080B483B000AF0023FB712B4B1B78BB71BB797B71BB7903F01E03002B0BD0BB794E
:401FC00003F01E03DAB2254B1B78DBB21343DBB2DAB2224B1A70BB7903F02003002B30D01F4B1B787B711F4B1B78DBB219461E4A7B7953540123FB71FB79002B21D01B4B7B
:402000001B78DBB2002B02D0194B01221A70154B1B78DBB20133DAB2124B1A70114B1B78DBB20F2B02D90F4B00221A700D4B1B78DAB2104B1B78DBB29A4202D10B4B01229A
:402040001A70BB7903F02003002BAED10C37BD465DF8047B704700BF696400405294FF1F486400405494FF1F6094FF1F5594FF1F5694FF1F5394FF1F80B483B000AF134BB5
:402080007F221A70124B80221A707F23FB710CE0FB79DB0003F1804303F5F043FA79013AD2B21A70FB79013BFB71FB79002BEFD1FB79DB0003F1804303F5F04300221A702D
:4020C0000C37BD465DF8047B704700BF8981FF1F8881FF1F80B485B000AF03460A46FB711346BB710123FB60FB79172B2FD8BB79002B0ED0FB791A01184B1344FA79110118
:40210000164A0A441278D2B242F02002D2B21A700DE0FB791A01114B1344FA7911010F4A0A441278D2B222F02002D2B21A70FB791A010A4B1344FA791101084A0A441278EC
:40214000D2B242F00102D2B21A700023FB60FB6818461437BD465DF8047B70471070004080B485B000AF03460A46FB711346BB710123FB60FB79172B18D8FB791A010F4B10
:4021800013441B78DBB223F00E03FB72FB791A010A4B1344BA7902F00702D2B25200D1B2FA7A0A43D2B21A700023FB60FB6818461437BD465DF8047B704700BF10700040EF
:4021C00080B485B000AF0346FB710B46BB8013467B800123FB60BB8841F6FF72934202D14FF40053BB807B8841F6FF72934202D14FF400537B80FB79172B17D8FB79DB0077
:4022000003F1804303F5EC430433BB60BB68BA881A80FB79DB0003F1804303F5EC430633BB60BB687A881A800023FB60FB6818461437BD465DF8047B704700BF80B485B0EF
:4022400000AF03460A46FB711346BB710123FB60FB79172B07D8FB791A01064B1344BA795A720023FB60FB6818461437BD465DF8047B70471070004090B484B000AF044692
:40228000084611461A462346FB710346BB710B467B7113463B710123FB60FB79172B34D8FB79DB0003F1804303F5EC43BA7902F07F02D1B27A79D201D2B20A43D2B21A7051
:4022C000FB79DB0003F1804303F5EC433A7E1201D1B23A7902F00F02D2B20A43D2B25A70FB79DB0003F1804303F5EC433A7F02F00F02D2B29A70FB79DB0003F1804303F519
:40230000EC430022DA700023FB60FB6818461037BD4690BC704700BF80B582B000AFFF23FB7100F044FC0346BB71104B1B78182B12D90F4B1B78FB710C4B1B78013BDAB247
:402340000A4B1A70FB79DB0003F1804303F5F0431B78DAB2064B1A70BB79184600F02BFCFB7918460837BD4680BD00BF8881FF1F8981FF1F90B484B000AF04460846114635
:402380001A462346FB710346BB800B46BB711346FB700123FB60FB795BB2002B23DBBB8823F47F6323F00F039BB2002B1BD1FB79DB0003F1804303F5F043BB60BB68BA8884
:4023C0001A80FB79DB0003F1804303F5F043BA799A70FB79DB0003F1804303F5F043FA78DA700023FB60FB6818461037BD4690BC704700BF80B485B000AF0346FB710B467F
:40240000BB8013467B800123FB60FB795BB2002B17DBFB79DB0003F1804303F5F0430433BB60BB68BA881A80FB79DB0003F1804303F5F0430633BB60BB687A881A80002307
:40244000FB60FB6818461437BD465DF8047B704780B483B000AF0346FB7101BE0C37BD465DF8047B704700BF80B584B000AF03463960FB710F4B1B68FB60FB791F2B02D916
:402480000020FFF7E5FFFB7903F01F0310339B00FA6813441B68BB60FB7903F01F0310339B00FA6813443A681A60BB6818461037BD4680BD08ED00E080B582B000AF0346EC
:4024C0000A46FB711346BB71BB79072B02D90020FFF7BEFFFB791F2B02D90020FFF7B8FFFB7903F01F0303F1604303F56443BA795201D2B21A700837BD4680BD80B584B0E6
:4025000000AF03460A46FB8013467B7100F0B2F80346FB7300F0A2F80346BB81FA88BB899A4200F08780454B1B78DBB203F00403FB72FB7B002B20D1BB89002B02D0FB882D
:40254000002B1AD1BB89002B0BD13D4AFB8813803C4A3C4B1B78DBB223F04003DBB2137068E0384A374B1B78DBB243F04003DBB21370334AFB8813805CE0FB7A002B33D066
:40258000314B00221A70314B04221A70304B00221A70304A2F4B1B78DBB203F07F03DBB21370284B1B78DBB203F00803002B02D0FB88002B18D1284ABB891380224B072203
:4025C0001A7000BF204B1B78DBB203F00103002BF8D11A4A194B1B78DBB223F00403DBB21370194B00221A70144B1B78DBB203F00403002B13D0184AFB881380124A7B79AB
:40260000002B01D0032300E00123137000BF0E4B1B78DBB203F00103002BF8D10AE0084AFB8813800549054B1B78DAB2FB7A1343DBB20B701037BD4680BD00BFA243004081
:40264000884000408A400040014000401040004014400040084000400240004080B400AF034B1B889BB21846BD465DF8047B70478840004080B400AF054B1B78DBB203F03E
:402680000703DBB21846BD465DF8047B704700BF8A40004080B582B000AF786000F03CF8786800F009F8072000F018F800F028F80837BD4680BD00BF80B485B000AF786086
:4026C000054B1B68FB60FB6844337A681A601437BD465DF8047B704708ED00E080B483B000AF0346FB71054AFB795B01DBB213700C37BD465DF8047B704700BF01E400E079
:4027000080B400AF034B02221A60BD465DF8047B704700BF00E100E080B400AF034B02221A60BD465DF8047B704700BF80E100E080B500AF00F02AF9022000F05FF90020DE
:4027400000F07CF900F0C8F9FFF7E6FD03461A46094B1A70FFF7E0FD03461A46074B1A7007484FF4807100F039F806484FF4807100F06CF880BD00BF5B94FF1F5C94FF1FFA
:40278000D84C0000D84D000080B500AF00F01CF900F0A8F9074B1B7818460121FFF79AFC054B1B7818460121FFF794FC002000F065F980BD5994FF1F5A94FF1F80B500AFD6
:4027C000054B1B78002B04D1FFF7B2FF024B01221A70FFF7D9FF80BD5894FF1F80B582B000AF78600B467B807B681B0C9BB2012001211A464FF4804300F060F803461A4615
:40280000104B1A70104B19780F4B1B787A88084611461A460123FFF7ADFD0B4B1A787B689BB21046194645F68332FFF7E3FD054B1A78054B1B7810461946FFF7FFFC0837D2
:40284000BD4680BD5994FF1F5B94FF1F80B582B000AF78600B467B807B681B0C9BB2012001211A464FF4804300F05CF803461A46104B1A70104B19780F4B1B787A880846CB
:4028800011461A460123FFF775FD0B4B1A787B689BB21046194645F68332FFF7ABFD054B1A78054B1B7810461946FFF7C7FC0837BD4680BD5A94FF1F5C94FF1F90B585B034
:4028C00002AF0446084611461A462346FB710346BB710B46BB8013467B80114B00221A700F4B1878F979BA7900230093002301930023FFF7C1FC0A4B1978BA887B8808465B
:4029000011461A46FFF75CFC054B1B7818460221FFF726FC024B1B7818460C37BD4690BD9081FF1F90B585B002AF0446084611461A462346FB710346BB710B46BB8013466D
:402940007B80114B01221A700F4B1878F979BA7900230093002301930023FFF78DFC0A4B1978BA887B88084611461A46FFF728FC054B1B7818460221FFF7F2FB024B1B7844
:4029800018460C37BD4690BD9181FF1F80B500AF0A4B00221A700A4B00221A70094A094B1B78DBB243F00803DBB21370002000F045F8022000F022F880BD00BF2C580040C2
:4029C0002D5800409F5A004080B400AF094A094B1B78DBB243F00803DBB21370064A064B1B78DBB243F00803DBB21370BD465DF8047B7047A8430040B843004080B483B077
:402A000000AF0346FB710C4A0B4B1B78DBB223F00203DBB213700849074B1B78DAB2FB7903F00203DBB21343DBB20B700C37BD465DF8047B704700BF2C58004080B582B06A
:402A400000AF0346FB710C4A0B4B1B78DBB223F00C03DBB213700849074B1B78DAB2FB7903F00C03DBB21343DBB20B7000F016F80837BD4680BD00BF2C58004080B483B06A
:402A800000AF0346FB71044AFB7913700C37BD465DF8047B704700BF835B004080B483B000AF0B4B1B78DBB203F00C039B08DBB20633FB71074AFB7903F1924303F59C73C7
:402AC0001B78DBB213700C37BD465DF8047B70472C5800400B46004080B500AF022000F025F880BD80B400AF0D4A0D4B1B78DBB243F06003DBB213700A4A0A4B1B78DBB29C
:402B000043F00803DBB21370074A074B1B78DBB243F00803DBB21370BD465DF8047B704777580040A4430040B443004080B483B000AF0346FB710C4A0B4B1B78DBB223F091
:402B40000303DBB213700849074B1B78DAB2FB7903F00303DBB21343DBB20B700C37BD465DF8047B704700BF5E58004000000000142816D902B4012114381049097811F075
:402B8000C001890904B40E4A515C04BC00BF00BF00BF8841FDD500BF00BF02BC704700BF00BF70F10400FCD570470B050709EFF3108072B6704780F3108870470048004054
:402BC000AA2B0000AFF300802DE9F04F8BB01F4680468946164600F0C7F9DFF8D8A204469AF900300D46013304D03046394600F0DBFF20B9204629460BB0BDE8F08F4046BD
:402C0000494600F0D1FF834660BB304639460022002301F02DFD0028ECD09AF900309E4C01229E4900208DE814005A1CCDF820B0CDE90289CDE90467CDE906010DD0022B94
:402C40000BD0684600F0DCFF002800F09380089B1BB101F05FFD089B0360DDE906010BB0BDE8F08F404649460022002301F000FDF8B1304639460022002301F0F9FC83468D
:402C800000284ED084489AF900300121002200240025CDE90289CDE90467CDE90645019000910892002BCCD07C4B0022CDE90623D3E72046294600F071FF834600285ED0F6
:402CC000204629460022002301F0D2FC002891D04046494600F062FF00288BD03046394600F05CFF002885D09AF900306A480421002200240025022BCDE90289CDE9046738
:402D0000CDE9064501900091089200F08880684600F076FF002800F08280089B002B9CD097E73046394600F039FF00283FF462AF304639460022002301F0A4FC00283FF44A
:402D400059AF55499AF800300122CDF820B0CDE90289CDE9046701910092002B3CD050490020022BCDE9060130D101F0D3FC21230360D2E701F0CEFC2123036067E740467C
:402D8000494600F00BFF00289AD03046394600F005FF002894D02046294600F005FF00BB3D4A9AF8004001230890CDE90289CDE90467019200937CB10020002102460B465B
:402DC00001F018FB022CCDE90601CED0684600F017FF0028A1D1C8E700220023CDE90623F4E72D499AF900300322CDF820B0CDE90289CDE9046701910092ABB9294D4FF0B8
:402E000060444046494600220023CDE9064501F039FC50BB9AF90030022B7FF478AF01F079FC2223036078E71F4D00244046494600220023CDE9064501F024FC0028E9D08E
:402E400000221A4B3046394601F0AAF904460D4600F0DEFE22462B4601F00AFC0028D9D10F4B0022CDE90623D4E700220F4B3046394601F095F904460D4600F0C9FE224675
:402E80002B4601F0F5FB0028C4D1094B4FF06042CDE90623BEE700BFD84E00000000F03F0000F0FFFFFFEF470000F07F0000E03FFFFFEFC79281FF1F2DE9F0478AB00646CD
:402EC0000F4600F0A1FDDFF898A004469AF900300D4601330FD03046394600F065FE50B14FF000084FF000093046394642464B4601F0C8FB20B9204629460AB0BDE8F0874F
:402F000016499AF8004001220023CDE90467CDE9026701910092089364B9CDE90689684600F06EFE80B1089B9BB9DDE906010AB0BDE8F0874046494642464B4601F05AFA71
:402F4000022CCDE90601EAD101F0E4FB21230360E9E701F0DFFB089B0360E6E7DC4E00009281FF1F000000002DE9F04F144623F00047024657EA04000E468FB01D469C46FD
:402F8000214634D06E4B26F0004A9A459346B14626DC24D09F4223DC694B9F4200F08F80B9F1000FC0F28F804FF0000879BB644B9F4200F0A580634B9F4267D0BCF1804F98
:402FC00000F0E283604B9C4521D1B9F1000F1EDB104631460FB0BDE8F04F00F015BD62B10AF1404000F5801050EA0B0007D10346544918460FB0BDE8F08F5745CCDD5348E3
:403000000FB0BDE8F04F00F0FDBD4FF0000810463146CDF808C0009200F0BCFD009ADDF808C0BBF1000F20D04FEAD97909F1FF3958EA09037AD0464B9F4240F38F8003F188
:4030400004739F4240F31084424B9A4540F39283BCF1000F40F3928337A1D1E900010B46024601F09DF80346C3E7BAF1000F04D0344B29F0404E9E45D6D1BCF1000FC0F228
:40308000B683B9F1000F08DB0346B2E7BCF1000FC0F2528413463146ABE70AF1404A0AF5801A58EA0A0340F05E8402460B4600F0C3FE0B46024601F09DF9034699E70029D8
:4030C0003FF46EAF8CE7244B9F422CDCA3F154739F427FF769AF40F213403B15834240F34B84C3F58663033321FA03F000FA03F38B427FF459AF00F00100C0F1020855E74A
:403100000AF1404303F5801353EA0B0300F03983104B9A4540F36483BCF1000FC0F22E832346294665E74FF002083FE7104631463346BCE7AFF300809C7500883CE4377E10
:403140000000F07F0000F03F0000E03FE04E00000000E041FFFFEF3FFFFF3F43BAF5801F4FF0000205DACA4B01F01AF88A466FF034024FEA2A53C74ECAF3130AA3F2FF3340
:403180004AF07F571344B2450C9347F4401740F3D083C14B9A4540F307840026B4460C9BA7F5801701330C933946BC4B4FEACC0C6344D3E900AB52465B46CDF834C0CDE937
:4031C000060100F039FE52465B46CDE90801DDE9060100F033FE02460B460020B04901F009F902460B46DDE90801CDE90A2300F0D7FF02460B46CDE90223CDE904237B1029
:4032000043F0005303F5002399190020002306460F460293DDE902231046194632463B46CDE9000100F0BCFF02460B46DDE9080100F002FE5246CDE908015B463046394682
:4032400000F0FAFD02460B46DDE9060100F0F4FD02460B46DDE9000100F0A2FF02460B46DDE9080100F0E8FDDDE90A2300F098FFDDE90423CDE906011046194600F090FF9A
:4032800002460B4606460F4600F08AFF6EA3D3E9002382468B463046394600F081FF6CA3D3E9002300F0CAFD32463B4600F078FF69A3D3E9002300F0C1FD32463B4600F0E6
:4032C0006FFF67A3D3E9002300F0B8FD32463B4600F066FF64A3D3E9002300F0AFFD32463B4600F05DFF62A3D3E9002300F0A6FD02460B465046594600F052FFDDE904234A
:4033000006460F46DDE9000100F098FDDDE9062300F046FF32463B4600F090FDDDE9006782468B4632463B463046394600F038FF00225C4BCDE9080100F080FD52465B46FD
:4033400000F07CFD02980F460646DDE9000132463B4600F025FF32463B46CDE90001DDE9060100F01DFF0022CDE906014D4B3046394600F061FDDDE9082300F05DFD02460F
:403380000B465046594600F057FDDDE9042300F007FF02460B46DDE9060100F04FFD82468B46DDE9000152465B4600F047FD32A3D3E9002302980F46064600F0F1FE30A350
:4033C000D3E90023CDE904013046394600F0E8FEDDE90023CDE906013046394600F02CFD02460B465046594600F026FD26A3D3E9002300F0D5FE02460B46DDE9060100F012
:403400001DFDDDF834C0284BCDF818C06344D3E9002300F013FDCDE900010C9800F05AFE06460F46DDE90401204BDDF818C09C44DDE90023DCE900AB00F000FD52465B468D
:4034400036E000BFAFF30080EF4E454A287ECA3F65DBC9934A86CD3F01411DA96074D13F4D268F515555D53FFFAB6FDBB66DDB3F033333333333E33F000000E009C7EE3F33
:40348000F5015B14E02F3EBEFD033ADC09C7EE3F000040438E98030079B60B00084F00000000F03F00000840F84E0000E84E0000CDE906AB00F0C2FC32463B4600F0BEFCA1
:4034C000029832463B4682468B4600F0B5FCDDE9062300F0B1FCDDE9042300F0ADFC02460B46DDE9000100F0A7FCCDE9020108F1FF3858EA09030CBFD54BD64B0022CDE9DF
:4035000004230023CDE900450093DDE90067204632463B46294600F08FFC52465B4600F03FFEDDE90223804689462046294600F037FE02460B464046494600F07FFC0446FA
:403540000D465246304639465B46CDE9024500F027FE06460F4620463B462946324600F06DFCBD4B824699428946884640F3138101F13F4303F5E003034340F0E581A0A373
:40358000D3E90023DDE9020100F058FC324604460D463B465046494600F04EFC02460B462046294601F08CF8002840F0CD814C462015A0F2FE304FF4801101414144C1F3CB
:4035C0000A50A64CA0F2FF35C1F3130BC0F5826003302C414BF4801B21EA040300224BFA00FB3946304600F027FC06460F46DDE902018BEAE87B0BEBD87B32463B464FEA9D
:403600000B5A00F01BFC80A3D3E90023002420460D4600F0C5FD3246804689463B462046294600F009FC02460B46DDE9020100F003FC77A3D3E9002300F0B2FD76A3D3E977
:40364000002306460F462046294600F0A9FD02460B463046394600F0F1FB06460F4632463B464046494600F0E9FB42464B4604460D4600F0E1FB02460B463046394600F02E
:40368000DBFB2246804689462B462046294600F087FD63A3D3E9002306460F4600F080FD61A3D3E9002300F0C7FB32463B4600F077FD5FA3D3E9002300F0C0FB32463B4613
:4036C00000F06EFD5CA3D3E9002300F0B5FB32463B4600F065FD5AA3D3E9002300F0AEFB32463B4600F05CFD02460B462046294600F0A2FB06460F4632463B462046294685
:4037000000F04EFD0022CDE900014FF080433046394600F091FB02460B46DDE9000100F069FE424606460F464B462046294600F037FD42464B4600F081FB02460B46304604
:40374000394600F079FB22462B4600F075FB02460B4600203F4900F06FFB8A44BAF5801F0246C0F227815346DDE9040100F018FD03463EE4BCF1000FFFF66EAC00231946B3
:4037800037E40B46334934E433461046314600F007FD03462DE4324B21F000449C4240F3FA80304B0B4403430CD132463B4600F043FB02460B46DDE9020100F06DFF00281E
:4037C0003FF4F6AE20A3D3E90023DDE9040100F0E7FC1DA3D3E9002300F0E2FC034608E4BCF1000FCADA234605F1004101E402460B460020174900F0FDFD42E4AFF30080E0
:40380000FE822B654715973C00000000432EE63FEF39FAFE422EE63F396CA80C615C20BED0A4BE726937663EF16BD2C541BDBB3E2CDE25AF6A56113F93BDBE166CC1663F54
:403840003E5555555555C53F59F3F8C21F6EA5010000F0BF0000F03FFFFF8F40FFFF0F00FFCB904000346F3F634B9A4582DD634B9A453FF7EDAB0022604B00F0DDFA54A31E
:40388000D3E9002306460F4600F08AFC52A3D3E90023CDE900013046394600F081FC3246CDE902013B463046394600F079FC002282468B4630463946514B00F071FC024628
:4038C0000B4647A1D1E9000100F0B6FA32463B4600F066FC02460B4600204A4900F0ACFA02460B465046594600F05AFC3EA3D3E9002300F055FC02460B46DDE9020100F0A0
:403900009BFA06460F46DDE9000132463B4600F095FADDE90023002082468B4600F08CFA02460B463046394600F086FACDE90201DDE50026B44637E4334600202F4900F045
:4039400059FD0346FFF755BB29A3D3E90023DDE9040100F025FC26A3D3E9002300F020FC0346FFF746BBB8F1010F03467FF441AB01F10041FFF73DBB00297FF446ABC3F560
:403980008263033347FA03F000FA03F3BB4217D08846FFF710BB1B4B9C423FF709AEDDE90023924693462EE64FF480264FF0010CFFF7FABB5A4600F0BBF902460B46D3E600
:4039C00000F00100C0F10208FFF7F5BAAFF30080000000604715F73F44DF5DF80BAE543E555555555555D53FFE822B654715F73F9C7500883CE4377EFEFFEF3F0000F03F23
:403A00000000D03F0000E03F2DE9F041604E0C46B6460E40764505460B4600F098800029024676DD5FEA215E00F08180AEF2FF3EC3F313031EF0010F43F480135ED1002704
:403A40003C46D10F01EB43034FEA6E0E520016204FF4001165189D424FEAD2764FEA420202DC5B1B6C180F44013806EB43034FEA5101EFD1844620264FF000410AE0A34282
:403A800020D0D50F013E4FEA510105EB43034FEA420220D09C420CEB0105F0DA002D05EB010C09DBA0461B1B954288BF03F1FF334446521B0844E4E7BCF1000FF2DB04F126
:403AC0000108F0E7954217D8002D05EB010C48DB98460023ECE7134315D140087B1003F17F5303F50013FA0703EB0E57394648BF40F00040BDE8F0811C46C2E7D10F01EBE8
:403B0000430352009BE7411C31D000F001031844E3E721F000460643ECD079BB8E46D30AAEF1150E5205002BF9D0DC0222D400215B00D80201F10101FAD5C1F10100C1F153
:403B4000200422FA04F4234386448A406EE702460B4600F025FB2A46234600F06FF9BDE8F081BCF1000FAADAA0460023A0E701373046B3E7202401200021E2E702460B46CE
:403B800000F05AF902460B4600F034FCB2E700BF0000F07F21F00041704700BF41F0004101F58010C00F704710B431F0004408D0114BA1F580129A4208D804205DF8044BF3
:403BC000704718B902205DF8044B704701F1FF41094B01F5E0019942EFD9B4F5801F01D20320EBE7054B9C4201D00020E6E7B0FA80F04009E2E700BFFFFFDF7F0000F07F0E
:403C00000020704700200149704700BF0000F87FF0B5C1F30A5EAEF2FF35132D83B002460B460C464FEAD17607462EDC002D48DB3C49294101EA030010432BD049080B4075
:403C400053EA02070CD04FF48023132D24EA010143FA05F444EA01040CBF4FF0004700273149234601EBC606D6E900453A462046294600F0E3F8CDE90001DDE90001224666
:403C80002B4600F0D9F803B0F0BD332D06DDB5F5806F43D01046194603B0F0BDAEF2134E4FF0FF3121FA0EF10142F3D049080142D6D04FF0804320EA010143FA0EF70F4302
:403CC000CEE721F000410143E4D0C3F3130141EA000CCCF1000141EA0C0C13495C0C4FEA1C3C0CF4002C640401EBC6014CEA0403D1E900452046294600F0A0F8CDE90001D7
:403D0000DDE9000122462B4600F096F8024621F0004141EAC67310461946BDE700F08EF8BAE700BFFFFF0F00184F000000000000F8B5C1F30A5604460D460B46174616BBE7
:403D400021F00043034332D00022314B00F028FA304A044697420D460B4637DB40F2FE72C1F30A56363E3E44964215DD24A1D1E9000122462B4600F053F821A3D3E90023F7
:403D800000F00EFAF8BD40F2FF72964224D040F2FE723E449642E9DC002E09DD23F0FF4323F4E00343EA065520462946F8BDF8BD16F1350F15DA4CF250339F42D6DC12A1BB
:403DC000D1E9000122462B4600F02AF80EA3D3E9002300F0E5F9F8BD02460B4600F02EF8F8BD23F0FF4323F4E003363643EA0655204629460022084B00F0D2F9F8BD00BFEA
:403E00009C7500883CE4377E59F3F8C21F6EA50100005043B03CFFFF0000903CAFF3008003F0004321F0004243EA0201704700BF81F0004102E000BF83F0004330B54FEA1A
:403E400041044FEA430594EA050F08BF90EA020F1FBF54EA000C55EA020C7FEA645C7FEA655C00F0E2804FEA5454D4EB5555B8BF6D420CDD2C4480EA020281EA030382EA6A
:403E8000000083EA010180EA020281EA0303362D88BF30BD11F0004F4FEA01314FF4801C4CEA113102D0404261EB410113F0004F4FEA03334CEA133302D0524263EB4303F2
:403EC00094EA050F00F0A780A4F10104D5F1200E0DDB02FA0EFC22FA05F2801841F1000103FA0EF2801843FA05F359410EE0A5F120050EF1200E012A03FA0EFC28BF4CF030
:403F0000020C43FA05F3C01851EBE37101F0004507D54FF0000EDCF1000C7EEB00006EEB0101B1F5801F1BD3B1F5001F0CD349085FEA30004FEA3C0C04F101044FEA4452EF
:403F400012F5800F80F09A80BCF1004F08BF5FEA500C50F1000041EB045141EA050130BD5FEA4C0C404141EB010111F4801FA4F10104E9D191F0000F04BF01460020B1FA2C
:403F800081F308BF2033A3F10B03B3F120020CDA0C3208DD02F1140CC2F10C0201FA0CF021FA02F10CE002F11402D8BFC2F1200C01FA02F120FA0CFCDCBF41EA0C0190400B
:403FC000E41AA2BF01EB0451294330BD6FEA04041F3C1CDA0C340EDC04F11404C4F1200220FA04F001FA02F340EA030021FA04F345EA030130BDC4F10C04C4F1200220FAF5
:4040000002F001FA04F340EA0300294630BD21FA04F0294630BD94F0000F83F4801306BF81F480110134013D4EE77FEA645C18BF7FEA655C29D094EA050F08BF90EA020F91
:4040400005D054EA000C04BF1946104630BD91EA030F1EBF0021002030BD5FEA545C05D14000494128BF41F0004130BD14F580043CBF01F5801130BD01F0004545F0FE419F
:4040800041F470014FF0000030BD7FEA645C1ABF194610467FEA655C1CBF0B46024650EA013406BF52EA033591EA030F41F4002130BD00BF90F0000F04BF0021704730B593
:4040C0004FF4806404F132044FF000054FF0000150E700BF90F0000F04BF0021704730B54FF4806404F1320410F0004548BF40424FF000013EE700BF42004FEAE2014FEA0A
:4041000031014FEA02701FBF12F07F4393F07F4F81F06051704792F0000F14BF93F07F4F704730B54FF4607401F0004521F0004120E700BF50EA010208BF704730B54FF041
:4041400000050AE050EA010208BF704730B511F0004502D5404261EB41014FF4806404F132045FEA915C3FF4DCAE4FF003025FEADC0C18BF03325FEADC0C18BF033202EB93
:40418000DC02C2F1200300FA03FC20FA02F001FA03FE40EA0E0021FA02F11444C1E600BF70B54FF0FF0C4CF4E06C1CEA11541DBF1CEA135594EA0C0F95EA0C0F00F0DEF89D
:4041C0002C4481EA030621EA4C5123EA4C5350EA013518BF52EA033541F4801143F4801338D0A0FB02CE4FF00005E1FB02E506F00042E0FB03E54FF00006E1FB03569CF0C1
:40420000000F18BF4EF0010EA4F1FF04B6F5007F64F5407404D25FEA4E0E6D4146EB060642EAC62141EA55514FEAC52040EA5E504FEACE2EB4F1FD0C88BFBCF5E06F1ED81C
:40424000BEF1004F08BF5FEA500E50F1000041EB045170BD06F0004646EA010140EA020081EA0301B4EB5C04C2BFD4EB0C0541EA045170BD41F480114FF0000E013C00F39A
:40428000AB8014F1360FDEBF002001F0004170BDC4F10004203C35DA0C341BDC04F11404C4F1200500FA05F320FA04F001FA05F240EA020001F0004221F0004110EBD3704A
:4042C00021FA04F642EB06015EEA430E08BF20EAD37070BDC4F10C04C4F1200500FA04F320FA05F001FA04F240EA020001F0004110EBD37041F100015EEA430E08BF20EAD2
:40430000D37070BDC4F1200500FA05F24EEA020E20FA04F301FA05F243EA020321FA04F001F0004121FA04F220EA020000EBD3705EEA430E08BF20EAD37070BD94F0000FCC
:404340000FD101F00046400041EB010111F4801F08BF013CF7D041EA060195F0000F18BF704703F00046520043EB030313F4801F08BF013DF7D043EA0603704794EA0C0F3E
:404380000CEA135518BF95EA0C0F0CD050EA410618BF52EA4306D1D181EA030101F000414FF0000070BD50EA410606BF1046194652EA430619D094EA0C0F02D150EA013680
:4043C00013D195EA0C0F05D152EA03361CBF104619460AD181EA030101F0004141F0FE4141F470014FF0000070BD41F0FE4141F4780170BD70B54FF0FF0C4CF4E06C1CEA1A
:4044000011541DBF1CEA135594EA0C0F95EA0C0F00F0A7F8A4EB050481EA030E52EA03354FEA013100F088804FEA03334FF0805545EA131343EA12634FEA022245EA1115F4
:4044400045EA10654FEA00260EF000419D4208BF964244F1FD0404F5407402D25B084FEA3202B61A65EB03055B084FEA32024FF480104FF4002CB6EB020E75EB030E22BFB8
:40448000B61A754640EA0C005B084FEA3202B6EB020E75EB030E22BFB61A754640EA5C005B084FEA3202B6EB020E75EB030E22BFB61A754640EA9C005B084FEA3202B6EBC2
:4044C000020E75EB030E22BFB61A754640EADC0055EA060E18D04FEA051545EA16754FEA06164FEAC30343EA52734FEAC2025FEA1C1CC0D111F4801F0BD141EA00014FF041
:4045000000004FF0004CB6E711F4801F04BF01430020B4F1FD0C88BFBCF5E06F3FF6AFAEB5EB030C04BFB6EB020C5FEA500C50F1000041EB045170BD0EF0004E4EEA113186
:4045400014EB5C04C2BFD4EB0C0541EA045170BD41F480114FF0000E013C90E645EA060E8DE60CEA135594EA0C0F08BF95EA0C0F3FF43BAF94EA0C0F0AD150EA01347FF497
:4045800034AF95EA0C0F7FF425AF104619462CE795EA0C0F06D152EA03353FF4FDAE1046194622E750EA410618BF52EA43067FF4C5AE50EA41047FF40DAF52EA43057FF486
:4045C000EBAE12E74FF0FF3C06E000BF4FF0010C02E000BF4FF0010C4DF804CD4FEA410C7FEA6C5C4FEA430C18BF7FEA6C5C1BD001B050EA410C0CBF52EA430C91EA030F6E
:4046000002BF90EA020F0020704710F1000F91EA030F58BF994208BF90422CBFD8176FEAE37040F0010070474FEA410C7FEA6C5C02D150EA013C07D14FEA430C7FEA6C5C2F
:40464000D6D152EA033CD3D05DF8040B704700BF8446104662468C461946634600E000BF01B5FFF7B7FF002848BF10F1000F01BD4DF808EDFFF7F4FF0CBF012000205DF877
:4046800008FB00BF4DF808EDFFF7EAFF34BF012000205DF808FB00BF4DF808EDFFF7E0FF94BF012000205DF808FB00BF4DF808EDFFF7CEFF94BF012000205DF808FB00BF72
:4046C0004DF808EDFFF7C4FF34BF012000205DF808FB00BF4A0011D212F5001211D20DD56FF47873B3EB62520ED44FEAC12343F0004343EA505323FA02F070474FF0000087
:40470000704750EA013002D14FF0FF3070474FF000007047014B1868704700BFF481FF1F0E4B70B51E460E4C0025E41AA410A54204D056F8253098470135F8E700F0F6FB4E
:40474000084B094C1E46E41AA4100025A54204D056F8253098470135F8E770BD384F0000384F0000384F0000404F000010B5431E0A44914204D011F8014B03F8014FF8E719
:4047800010BD03460244934202D003F8011BFAE770470000000000009A9999999959304052B81E85EB5131409A9999999959324033333333337333409A999999999934406D
:4047C00014AE47E17AD435401F85EB51B81E37400000000000803840F6285C8FC2F539400000000000803B40A4703D0AD7233D401F85EB51B8DE3E40808386898C8F929599
:40480000989B9EA2A5A7AAADB0B3B6B9BCBEC1C4C6C9CBCED0D3D5D7DADCDEE0E2E4E6E8EAEBEDEEF0F1F3F4F5F6F8F9FAFAFBFCFDFDFEFEFEFFFFFFFFFFFFFFFEFEFEFDEF
:40484000FDFCFBFAFAF9F8F6F5F4F3F1F0EEEDEBEAE8E6E4E2E0DEDCDAD7D5D3D0CECBC9C6C4C1BEBCB9B6B3B0ADAAA7A5A29E9B9895928F8C898683807C797673706D6A1D
:404880006764615D5A5855524F4C494643413E3B393634312F2C2A282523211F1D1B1917151412110F0E0C0B0A0907060505040302020101010000000000000001010102C1
:4048C00002030405050607090A0B0C0E0F1112141517191B1D1F212325282A2C2F313436393B3E414346494C4F5255585A5D6164676A6D707376797CFFFFFFFFFFFFFFFF6E
:40490000FFFFFFFFFFFFFFFFFFFFFFFFFFFFFFFFFFFFFFFFFFFFFFFFFFFFFFFFFFFFFFFFFFFFFFFFFFFFFFFFFFFFFFFFFFFFFFFFFFFFFFFFFFFFFFFFFFFFFFFFFFFFFFFFB7
:40494000FFFFFFFFFFFFFFFFFFFFFFFFFFFFFFFFFFFFFFFFFFFFFFFFFFFFFFFFFFFFFFFFFFFFFFFFFFFFFFFFFFFFFFFFFFFFFFFFFFFFFFFFFFFFFFFF00000000000000006F
:4049800000000000000000000000000000000000000000000000000000000000000000000000000000000000000000000000000000000000000000000000000000000000F7
:4049C000000000000000000000000000000000000000000000000000000000000000000000000000000000000000000000000000000000000000000080828486888A8C8E7F
:404A000090929496989A9C9EA0A2A4A6A8AAACAEB0B2B4B6B8BABCBEC0C2C4C6C8CACCCED0D2D4D6D8DADCDEE0E2E4E6E8EAECEEF0F2F4F6F8FAFCFEFFFEFCFAF8F6F4F227
:404A4000F0EEECEAE8E6E4E2E0DEDCDAD8D6D4D2D0CECCCAC8C6C4C2C0BEBCBAB8B6B4B2B0AEACAAA8A6A4A2A09E9C9A98969492908E8C8A88868482807E7C7A78767472F6
:404A8000706E6C6A68666462605E5C5A58565452504E4C4A48464442403E3C3A38363432302E2C2A28262422201E1C1A18161412100E0C0A0806040200020406080A0C0E46
:404AC00010121416181A1C1E20222426282A2C2E30323436383A3C3E40424446484A4C4E50525456585A5C5E60626466686A6C6E70727476787A7C7E808182838485868712
:404B000088898A8B8C8D8E8F909192939495969798999A9B9C9D9E9FA0A1A2A3A4A5A6A7A8A9AAABACADAEAFB0B1B2B3B4B5B6B7B8B9BABBBCBDBEBFC0C1C2C3C4C5C6C795
:404B4000C8C9CACBCCCDCECFD0D1D2D3D4D5D6D7D8D9DADBDCDDDEDFE0E1E2E3E4E5E6E7E8E9EAEBECEDEEEFF0F1F2F3F4F5F6F7F8F9FAFBFCFDFEFF000102030405060755
:404B800008090A0B0C0D0E0F101112131415161718191A1B1C1D1E1F202122232425262728292A2B2C2D2E2F303132333435363738393A3B3C3D3E3F404142434445464715
:404BC00048494A4B4C4D4E4F505152535455565758595A5B5C5D5E5F606162636465666768696A6B6C6D6E6F707172737475767778797A7B7C7D7E7F0802000000020000E5
:404C0000F8010000F0010000E8010000E8010000E8010000E80100004894FF1F4894FF1F4894FF1F4894FF1F4894FF1F4894FF1F4894FF1F4894FF1F4894FF1F4894FF1F22
:404C40004894FF1F4894FF1F4894FF1F4894FF1F4894FF1F0800004818000048240000482C0200484C020048100000482C000048AC0000482C010048AC0100486C0200484A
:404C80007C0200488C0200480C0300488C0300480C0400488C0400480C0500488C0500480C0600488C0600480C0700488C0700480C0800488C0800480C0900488C090048EC
:404CC0000C0A00488C0A00480C0B00488C0B00480C0C00488C0C004880878F979FA6AEB5BCC2C9CFD5DBE0E5E9EDF1F4F6F9FAFCFC000000000000000000000000000000FE
:404D00000000000000000000000000000000000000000000000000000000000000000000000000000000000000000000000000000000000000000000000000000000000073
:404D40000000000000000000000000000000000000000000000000000000000000000000000000000000000000000000000000000000000000000000000000000000000033
:404D800000000000000000000000000000000000000000000000000000000000000000000000000000000000000000000000000000000000000000000000000000000000F3
:404DC00000000000000000000000000000000000000000000000000080808080808080808080808080808080808080808080808080808080808080808080808080808080B3
:404E00008080808080808080808080808080808080808080808080808080808080808080808080808080808080808080808080808080808080808080808080808080808072
:404E40008080808080808080808080808080808080808080808080808080808080808080808080808080808080808080808080808080808080808080808080808080808032
:404E800080808080808080808080808080808080808080808080808080808080808080808080808080808080808080808080808080808080808080808080808080808080F2
:404EC000808080808080808080808080808080808080808080808080706F770073717274000000000000000000000000000000000000004003B8E23F000000000000000076
:404F000006D0CF43EBFD4C3E000000000000F03F000000000000F83F000000000000304300000000000030C343000000F8B500BFF8BC08BC9E467047350200001516000027
:404F4000F8B500BFF8BC08BC9E46704711020000604F00000881FF1FF00000007812000000000000000000000000000000000000000000000000F03F000000000000084058
:404F800000000000000018C000000000000028C000000000000018C00000000000000840000000000000F03F0100000000000000000000000000F03F000000000000F03F83
:404FC0007B14AE47E17A943F9A9999999999A93F9A9999999999B93F0101000000000000807F000003000000FFFF01000000000000000000000000000000000000000000EE
:40500000000000000000000000000000284F0000000000000000000000000000000000000000000000000000000000000000000000000000000000000000000000000000F9
:405040000000000000000000000000009481FF1F000000000000000000000000000000000000000000000000000000000000000000000000000000000000000000000000FD
:4050800000000000000000000000000000000000000000000000000000000000000000000000000000000000000000000000000000000000000000000000000000000000F0
:4050C00000000000000000000000000000000000000000000000000000000000000000000000000000000000000000000000000000000000000000000000000000000000B0
:40510000000000000000000000000000000000000000000000000000000000000000000000000000000000000000000000000000000000000000000000000000000000006F
:40514000000000000000000000000000000000000000000000000000000000000000000000000000000000000000000000000000000000000000000000000000000000002F
:020000040003F7
:0200000480007A
:40000000020000000000000020000000000000000F0000000000000000000000000000000000360000000000000000010040B3000C74000B4C60A300421F0060F3640C1B4C
:4000400003200000017F00004F0090130000400004010000FF030000080200000F0300707C048C080080AA000000001042060300010C00E021FFFFFF62A0F0410C00000035
:400080000000021104040404111100010000000000004002001030100010101200000000000000000000000000000000040000000000000000000000000001000000000031
:4000C00000000000000000000000000000000000000002000000020000000100000004000100020000000000000054000000000000000000000000000000000000000000A0
:40010000180004000400000400100001000000000000000000000000000000000000000000000000000000000000000011040E514000800000270800800040000000000067
:400140000C01130E0000000000000C0020000300C0020011C02700001120060000180F20C00730408000080000000001060000000000400000FF07FF4020F0050800000082
:4001800000000800040404041191000140A84020000000000000000000000000000000000000000000000000000000000000200800030044000000000C7371041073AC0C9E
:4001C000DC2A224400800300000000000000005514000000100040000900D000E00F00301F40008080080202000040541405000000EB000C13FFFFFF0000F0440C00000000
:40020000010000000404040411110001000000000000C000000040020000000000000000000000000000000000000000000000000000000000000000000000000000000088
:40024000000000007238000000000000000000000000000000000000000000000000000000000000000F0000000000000201000000000000000000000201000002000000BD
:40028000000000000000000002000000000000000000000000000000000000000000000000000000000000000000000000000000000000000000000100000000000000003B
:4002C00022000000000000000000000000000000000000000000000000000000000000000000000000000000000000000000000000000000000008000800000000000000CC
:4003000000000000000000000000000000000000000000000200000000000000000000000000000000000000000000000000000000000000000000000000000000000000BB
:40034000000000000000000000000000000000000000000000000000000000000000000000000000000000000000000100000000000000000000000000000000000000007C
:40038000000000000000000000000000000000000000000000000000000000000000000000000000000000000000000000000000200000000000000000000000000000001D
:4003C00000000000000000000000000000000800000000000000000000000000000000000000010000000000000000000000000000000000000000000000000000000000F4
:40040000000000000000000000000000000000000000000000000000000000000000000000000000000000000000000000000000000000000000000000000000200000009C
:40044000000000000000000000000000000000000000000000000000000000000000000000000000000000000000000000000000000000000000000000000000000000007C
:40048000000000000000000000000000000000000000000000000000000000000000000000000000000000000000000000000000000000000000000000000000000000003C
:4004C00000000000000000000000000000000000000000000000000008000000000000000000000000000000000000000000000000000000000000000000000000000000F4
:40050000000000000000000000000000000000000000000000000000000000000000000000000000000000000000000000000000000000000040000000000000000000007B
:4005400080000000000000000000000000000000000000000000000000000000000000000000000000000000000000000000000000000000010000001000000000000000EA
:40058000000000000000000000000000000000000000000000000000000000000000000000000000000000000000000000000000000000000000000000000000000000003B
:4005C00000000000000000000000000000000000000000000000000000000000000000000000000000000000000000000000000000000000000000001000000000000000EB
:4006000000000000000000000000000040000080048044000208080000080100202005000210801440500800050801200060011000000449000000400050002000180100DF
:400640000400000849004140000010010200800000000000200300400000001004000000001080C000254000880008000000000000800001000000000000000000000000D4
:40068000000000000000000000000000042000000040000002000100002040000040100000000000000400140C820041000000000000002000000000000000000800800094
:4006C000000000000000000000000000F900AE00F7000000000071004700AB000900280000001F001000000000000000000000000000000000000000000000000000000099
:4007000000000000000000000000000000000000000000000000000000000000000000000000000000000000000000000000000000000000000000000000000000000000B9
:400740000000000000000000000000000000000000000000000000000000000000000000000000000000000000000000000000000000080000000000000000000000000071
:40078000000000000000000000000000000201000080288000000000140042002080080000100209050400000800420800000000004618000030000814800020010200004D
:4007C00000108188000000000800EA000000000008048040000000002030000000000000000001000100000000002000050000400000000000000000004010140000000007
:40080000000022080000000000000000000000000000004000000000000000000000000000000000000000000000000000000000000000000000000000000000000000004E
:40084000000000000000000000000000F900F000F700000000007000F000F000F0002000000021000D0000000000000000000000000000000000000000000000000000000A
:400880000000000000000000000000000000000000000000000000000000000000000000000000000000000000000000000000000000000000000000000000000000000038
:4008C00000000000000000000000000000000000000000000000000000000000000000000000000000000000000000000000000000000200000000000000000000000000F6
:4009000000000000000000000000000000000000000000000000000000000000000000000000000000000000000000000000000000000000000000000000000000000000B7
:400940004000000000000000000000000000000000000000000000000000000000000000000000000000000000000000000000000000000000000000000000000000000037
:40098000000000000000000000000000000000000000000000000000000000000000000000000000000000000000000000000000C000000000000000000000000000000077
:4009C00000000000000000000000000000000000000000000000000000000000000000000000000000000000000000000000000000000008000000000000000000000000EF
:400A00000000000000000000000000000000000000000004000000000000000000000000400000000000000000000000000000000000000000000000000000000000000072
:400A40000000000000000000000000000000000000000000800000000000000000000000000000008000000000000000000000000000100000000000000000000000000066
:400A800000000000000000000000000000000000000020000000000000000000000000004000000000000000000000000000000000002000000000000000000000000000B6
:400AC00000000000000000000000000000000000000000000000000000000000000000000000000000000000000000000000000000004000000000000000000000000000B6
:400B00000000000000000000000000000000000000000000000000000000000000000000400000000000000000000000000000000000200000000000000000000000000055
:400B40000000000000000000000000000000000000000000000000000000000000000000000000000000000000000000000000000000000000000000000000000000000075
:400B800000000000000000000000000000000000000000000000000000000000000000004000000000000000000000000000000000002000000000000000000000000000D5
:400BC00000000000000000000000000000000000000000000000000000000000000000000000000000000000000000000000000000000000000000000000000000000000F5
:400C00000000000000000000000000000000000000000000000000000000000000000000000000000000000000000000000000000000000000000000000000000000200094
:400C40000000200000000000400000000000000000000000000000000000000000000000000000000000000000000000000000000000000000000000000000000000000014
:400C80000000000000000000000000000000000000000000000000000000000000000000000000000000000000000000000000000000000000000000000000000000000034
:400CC00000000000000000000000000000000000000000000000000030002000000000000000000000000000000000000000000000000000000000000000000000000000A4
:400D000000000000000000000000000000000000000004002000102B2B00200000000000000000000000000000000000000000000000000000000000000000000000000009
:400D40000000000000000000000000000000000000000000000000000000000000000000000000000000000000000000000000000000000000000000000000000000000073
:400D80000000000000000000000000000000000000000000000000000000000000000000000000000000000000000000000000000000000000000000000000000000000033
:400DC00000000000000000000000000000000000000000000000000000000000000000000000000000000000000000000000000000000000000000000000000000000000F3
:400E000000000000000000000000000000000000000000000000000000000000000000000000000000000000000000000000000000000000000000000000000000000000B2
:0200000490006A
:0400000000004005B7
:0200000490105A
:04000000BC90ACAF55
:0200000490303A
:02000000329537
:0200000490402A
:4000000000000000000000000000000000000000000000000000000000000000000000000000000000000000000000000000000000000000000000000000000000000000C0
:400040000000000000000000000000000000000000000000000000000000000000000000000000000000000000000000000000000000000000000000000000000000000080
:400080000000000000000000000000000000000000000000000000000000000000000000000000000000000000000000000000000000000000000000000000000000000040
:4000C0000000000000000000000000000000000000000000000000000000000000000000000000000000000000000000000000000000000000000000000000000000000000
:0200000490501A
:0C00000000012E12306900012E3162FE5A
:00000001FF